{
  "_format": "hh-sol-artifact-1",
  "contractName": "AVAXGods",
  "sourceName": "contracts/AvaxGods.sol",
  "abi": [
    {
      "inputs": [],
      "name": "archive",
      "outputs": [
        {
          "components": [
            {
              "internalType": "address",
              "name": "_from",
              "type": "address"
            },
            {
              "internalType": "address",
              "name": "_to",
              "type": "address"
            },
            {
              "internalType": "string",
              "name": "_subject",
              "type": "string"
            },
            {
              "internalType": "string",
              "name": "_markdown",
              "type": "string"
            },
            {
              "internalType": "uint256",
              "name": "_timeStamp",
              "type": "uint256"
            },
            {
              "internalType": "uint256",
              "name": "_index",
              "type": "uint256"
            },
            {
              "internalType": "bool",
              "name": "_inbox",
              "type": "bool"
            },
            {
              "internalType": "bool",
              "name": "_starred",
              "type": "bool"
            },
            {
              "internalType": "bool",
              "name": "_archive",
              "type": "bool"
            },
            {
              "internalType": "bool",
              "name": "_sent",
              "type": "bool"
            },
            {
              "internalType": "bool",
              "name": "_read",
              "type": "bool"
            },
            {
              "internalType": "bool",
              "name": "_spam",
              "type": "bool"
            },
            {
              "internalType": "bool",
              "name": "_trash",
              "type": "bool"
            },
            {
              "internalType": "bool",
              "name": "_unTracked",
              "type": "bool"
            }
          ],
          "internalType": "struct AVAXGods.Mail[]",
          "name": "",
          "type": "tuple[]"
        }
      ],
      "stateMutability": "view",
      "type": "function"
    },
    {
      "inputs": [],
      "name": "chain",
      "outputs": [
        {
          "components": [
            {
              "internalType": "address",
              "name": "_from",
              "type": "address"
            },
            {
              "internalType": "address",
              "name": "_to",
              "type": "address"
            },
            {
              "internalType": "string",
              "name": "_subject",
              "type": "string"
            },
            {
              "internalType": "string",
              "name": "_markdown",
              "type": "string"
            },
            {
              "internalType": "uint256",
              "name": "_timeStamp",
              "type": "uint256"
            },
            {
              "internalType": "uint256",
              "name": "_index",
              "type": "uint256"
            },
            {
              "internalType": "bool",
              "name": "_inbox",
              "type": "bool"
            },
            {
              "internalType": "bool",
              "name": "_starred",
              "type": "bool"
            },
            {
              "internalType": "bool",
              "name": "_archive",
              "type": "bool"
            },
            {
              "internalType": "bool",
              "name": "_sent",
              "type": "bool"
            },
            {
              "internalType": "bool",
              "name": "_read",
              "type": "bool"
            },
            {
              "internalType": "bool",
              "name": "_spam",
              "type": "bool"
            },
            {
              "internalType": "bool",
              "name": "_trash",
              "type": "bool"
            },
            {
              "internalType": "bool",
              "name": "_unTracked",
              "type": "bool"
            }
          ],
          "internalType": "struct AVAXGods.Mail[]",
          "name": "",
          "type": "tuple[]"
        }
      ],
      "stateMutability": "view",
      "type": "function"
    },
    {
      "inputs": [
        {
          "internalType": "address",
          "name": "_to",
          "type": "address"
        },
        {
          "internalType": "string",
          "name": "_subject",
          "type": "string"
        },
        {
          "internalType": "string",
          "name": "_markdown",
          "type": "string"
        }
      ],
      "name": "compose",
      "outputs": [],
      "stateMutability": "nonpayable",
      "type": "function"
    },
    {
      "inputs": [
        {
          "internalType": "address",
          "name": "_to",
          "type": "address"
        },
        {
          "internalType": "string",
          "name": "_subject",
          "type": "string"
        },
        {
          "internalType": "string",
          "name": "_markdown",
          "type": "string"
        },
        {
          "internalType": "uint256",
          "name": "_index",
          "type": "uint256"
        }
      ],
      "name": "forward",
      "outputs": [],
      "stateMutability": "nonpayable",
      "type": "function"
    },
    {
      "inputs": [
        {
          "internalType": "uint256",
          "name": "index",
          "type": "uint256"
        }
      ],
      "name": "getReply",
      "outputs": [
        {
          "components": [
            {
              "internalType": "address",
              "name": "_from",
              "type": "address"
            },
            {
              "internalType": "address",
              "name": "_to",
              "type": "address"
            },
            {
              "internalType": "string",
              "name": "_subject",
              "type": "string"
            },
            {
              "internalType": "string",
              "name": "_markdown",
              "type": "string"
            },
            {
              "internalType": "uint256",
              "name": "_timeStamp",
              "type": "uint256"
            },
            {
              "internalType": "uint256",
              "name": "_index",
              "type": "uint256"
            },
            {
              "internalType": "bool",
              "name": "_inbox",
              "type": "bool"
            },
            {
              "internalType": "bool",
              "name": "_starred",
              "type": "bool"
            },
            {
              "internalType": "bool",
              "name": "_archive",
              "type": "bool"
            },
            {
              "internalType": "bool",
              "name": "_sent",
              "type": "bool"
            },
            {
              "internalType": "bool",
              "name": "_read",
              "type": "bool"
            },
            {
              "internalType": "bool",
              "name": "_spam",
              "type": "bool"
            },
            {
              "internalType": "bool",
              "name": "_trash",
              "type": "bool"
            },
            {
              "internalType": "bool",
              "name": "_unTracked",
              "type": "bool"
            }
          ],
          "internalType": "struct AVAXGods.Mail[]",
          "name": "",
          "type": "tuple[]"
        }
      ],
      "stateMutability": "view",
      "type": "function"
    },
    {
      "inputs": [],
      "name": "inbox",
      "outputs": [
        {
          "components": [
            {
              "internalType": "address",
              "name": "_from",
              "type": "address"
            },
            {
              "internalType": "address",
              "name": "_to",
              "type": "address"
            },
            {
              "internalType": "string",
              "name": "_subject",
              "type": "string"
            },
            {
              "internalType": "string",
              "name": "_markdown",
              "type": "string"
            },
            {
              "internalType": "uint256",
              "name": "_timeStamp",
              "type": "uint256"
            },
            {
              "internalType": "uint256",
              "name": "_index",
              "type": "uint256"
            },
            {
              "internalType": "bool",
              "name": "_inbox",
              "type": "bool"
            },
            {
              "internalType": "bool",
              "name": "_starred",
              "type": "bool"
            },
            {
              "internalType": "bool",
              "name": "_archive",
              "type": "bool"
            },
            {
              "internalType": "bool",
              "name": "_sent",
              "type": "bool"
            },
            {
              "internalType": "bool",
              "name": "_read",
              "type": "bool"
            },
            {
              "internalType": "bool",
              "name": "_spam",
              "type": "bool"
            },
            {
              "internalType": "bool",
              "name": "_trash",
              "type": "bool"
            },
            {
              "internalType": "bool",
              "name": "_unTracked",
              "type": "bool"
            }
          ],
          "internalType": "struct AVAXGods.Mail[]",
          "name": "",
          "type": "tuple[]"
        }
      ],
      "stateMutability": "view",
      "type": "function"
    },
    {
      "inputs": [
        {
          "internalType": "string",
          "name": "_to",
          "type": "string"
        },
        {
          "internalType": "uint256[]",
          "name": "_indexes",
          "type": "uint256[]"
        }
      ],
      "name": "move",
      "outputs": [],
      "stateMutability": "nonpayable",
      "type": "function"
    },
    {
      "inputs": [
        {
          "internalType": "uint256",
          "name": "_index",
          "type": "uint256"
        },
        {
          "internalType": "address",
          "name": "_to",
          "type": "address"
        },
        {
          "internalType": "string",
          "name": "_subject",
          "type": "string"
        },
        {
          "internalType": "string",
          "name": "_markdown",
          "type": "string"
        }
      ],
      "name": "reply",
      "outputs": [],
      "stateMutability": "nonpayable",
      "type": "function"
    },
    {
      "inputs": [],
      "name": "sent",
      "outputs": [
        {
          "components": [
            {
              "internalType": "address",
              "name": "_from",
              "type": "address"
            },
            {
              "internalType": "address",
              "name": "_to",
              "type": "address"
            },
            {
              "internalType": "string",
              "name": "_subject",
              "type": "string"
            },
            {
              "internalType": "string",
              "name": "_markdown",
              "type": "string"
            },
            {
              "internalType": "uint256",
              "name": "_timeStamp",
              "type": "uint256"
            },
            {
              "internalType": "uint256",
              "name": "_index",
              "type": "uint256"
            },
            {
              "internalType": "bool",
              "name": "_inbox",
              "type": "bool"
            },
            {
              "internalType": "bool",
              "name": "_starred",
              "type": "bool"
            },
            {
              "internalType": "bool",
              "name": "_archive",
              "type": "bool"
            },
            {
              "internalType": "bool",
              "name": "_sent",
              "type": "bool"
            },
            {
              "internalType": "bool",
              "name": "_read",
              "type": "bool"
            },
            {
              "internalType": "bool",
              "name": "_spam",
              "type": "bool"
            },
            {
              "internalType": "bool",
              "name": "_trash",
              "type": "bool"
            },
            {
              "internalType": "bool",
              "name": "_unTracked",
              "type": "bool"
            }
          ],
          "internalType": "struct AVAXGods.Mail[]",
          "name": "",
          "type": "tuple[]"
        }
      ],
      "stateMutability": "view",
      "type": "function"
    },
    {
      "inputs": [],
      "name": "spam",
      "outputs": [
        {
          "components": [
            {
              "internalType": "address",
              "name": "_from",
              "type": "address"
            },
            {
              "internalType": "address",
              "name": "_to",
              "type": "address"
            },
            {
              "internalType": "string",
              "name": "_subject",
              "type": "string"
            },
            {
              "internalType": "string",
              "name": "_markdown",
              "type": "string"
            },
            {
              "internalType": "uint256",
              "name": "_timeStamp",
              "type": "uint256"
            },
            {
              "internalType": "uint256",
              "name": "_index",
              "type": "uint256"
            },
            {
              "internalType": "bool",
              "name": "_inbox",
              "type": "bool"
            },
            {
              "internalType": "bool",
              "name": "_starred",
              "type": "bool"
            },
            {
              "internalType": "bool",
              "name": "_archive",
              "type": "bool"
            },
            {
              "internalType": "bool",
              "name": "_sent",
              "type": "bool"
            },
            {
              "internalType": "bool",
              "name": "_read",
              "type": "bool"
            },
            {
              "internalType": "bool",
              "name": "_spam",
              "type": "bool"
            },
            {
              "internalType": "bool",
              "name": "_trash",
              "type": "bool"
            },
            {
              "internalType": "bool",
              "name": "_unTracked",
              "type": "bool"
            }
          ],
          "internalType": "struct AVAXGods.Mail[]",
          "name": "",
          "type": "tuple[]"
        }
      ],
      "stateMutability": "view",
      "type": "function"
    },
    {
      "inputs": [],
      "name": "star",
      "outputs": [
        {
          "components": [
            {
              "internalType": "address",
              "name": "_from",
              "type": "address"
            },
            {
              "internalType": "address",
              "name": "_to",
              "type": "address"
            },
            {
              "internalType": "string",
              "name": "_subject",
              "type": "string"
            },
            {
              "internalType": "string",
              "name": "_markdown",
              "type": "string"
            },
            {
              "internalType": "uint256",
              "name": "_timeStamp",
              "type": "uint256"
            },
            {
              "internalType": "uint256",
              "name": "_index",
              "type": "uint256"
            },
            {
              "internalType": "bool",
              "name": "_inbox",
              "type": "bool"
            },
            {
              "internalType": "bool",
              "name": "_starred",
              "type": "bool"
            },
            {
              "internalType": "bool",
              "name": "_archive",
              "type": "bool"
            },
            {
              "internalType": "bool",
              "name": "_sent",
              "type": "bool"
            },
            {
              "internalType": "bool",
              "name": "_read",
              "type": "bool"
            },
            {
              "internalType": "bool",
              "name": "_spam",
              "type": "bool"
            },
            {
              "internalType": "bool",
              "name": "_trash",
              "type": "bool"
            },
            {
              "internalType": "bool",
              "name": "_unTracked",
              "type": "bool"
            }
          ],
          "internalType": "struct AVAXGods.Mail[]",
          "name": "",
          "type": "tuple[]"
        }
      ],
      "stateMutability": "view",
      "type": "function"
    },
    {
      "inputs": [],
      "name": "trash",
      "outputs": [
        {
          "components": [
            {
              "internalType": "address",
              "name": "_from",
              "type": "address"
            },
            {
              "internalType": "address",
              "name": "_to",
              "type": "address"
            },
            {
              "internalType": "string",
              "name": "_subject",
              "type": "string"
            },
            {
              "internalType": "string",
              "name": "_markdown",
              "type": "string"
            },
            {
              "internalType": "uint256",
              "name": "_timeStamp",
              "type": "uint256"
            },
            {
              "internalType": "uint256",
              "name": "_index",
              "type": "uint256"
            },
            {
              "internalType": "bool",
              "name": "_inbox",
              "type": "bool"
            },
            {
              "internalType": "bool",
              "name": "_starred",
              "type": "bool"
            },
            {
              "internalType": "bool",
              "name": "_archive",
              "type": "bool"
            },
            {
              "internalType": "bool",
              "name": "_sent",
              "type": "bool"
            },
            {
              "internalType": "bool",
              "name": "_read",
              "type": "bool"
            },
            {
              "internalType": "bool",
              "name": "_spam",
              "type": "bool"
            },
            {
              "internalType": "bool",
              "name": "_trash",
              "type": "bool"
            },
            {
              "internalType": "bool",
              "name": "_unTracked",
              "type": "bool"
            }
          ],
          "internalType": "struct AVAXGods.Mail[]",
          "name": "",
          "type": "tuple[]"
        }
      ],
      "stateMutability": "view",
      "type": "function"
    }
  ],
  "bytecode": "0x608080604052346100165761225a908161001c8239f35b600080fdfe60806040908082526004908136101561001757600080fd5b600090813560e01c9081630116cbc3146117cf5750806302a21460146115b05780631c3980991461152e5780632c6dbb1c146113d557806347966bc2146111b6578063917bb5d014610c3f578063c2bfccc014610a26578063c3e7005514610807578063c763e5a114610791578063d1c447c314610448578063d6f4bdca146103335763fb0e722b146100a957600080fd5b3461033057806003193601126103305733815260016020528281209081549181825b84811061022857506100dc9061216d565b93825b8481106100f7578651806100f38882611957565b0390f35b6101018184611b3c565b5060ff80600680930154169182610210575b826101f4575b826101d8575b826101bc575b826101a0575b82610184575b5050610146575b61014190611ee9565b6100df565b9261017c6101419161016161015b8787611b3c565b50611fc6565b61016b828a611f0e565b526101768189611f0e565b50611ee9565b939050610138565b9091506101918386611b3c565b50015460181c16153880610131565b915080826101ae8588611b3c565b50015460301c16159161012b565b915080826101ca8588611b3c565b50015460281c161591610125565b915080826101e68588611b3c565b50015460101c16159161011f565b915080826102028588611b3c565b50015460381c161591610119565b91508361021d8487611b3c565b500154151591610113565b6102328184611b3c565b5060ff80600680930154169182610318575b826102fc575b826102e0575b826102c4575b826102a8575b8261028c575b5050610277575b61027290611ee9565b6100cb565b9061028461027291611ee9565b919050610269565b9091506102998386611b3c565b50015460181c16153880610262565b915080826102b68588611b3c565b50015460301c16159161025c565b915080826102d28588611b3c565b50015460281c161591610256565b915080826102ee8588611b3c565b50015460101c161591610250565b9150808261030a8588611b3c565b50015460381c16159161024a565b9150876103258487611b3c565b500154151591610244565b80fd5b509190346104445760603660031901126104445761034f6118cf565b6001600160401b03906024358281116104405761036f90369085016118ea565b9060443593841161043c576103ce61038d61042495369088016118ea565b338a52876020526103c3898b2054948a51976103a889611a71565b3389526001600160a01b031660208901819052963691611af6565b898701523691611af6565b606084015242608084015260a08301528560e08301528561010083015285610120830152856101408301528561016083015285610180830152856101a0830152600160c083015285526001602052838520611bfc565b3383526020528082206104378154611ee9565b905551f35b8680fd5b8580fd5b8280fd5b5091903461044457608036600319011261044457826104656118cf565b60248035916001600160401b039283811161078d5761048790369087016118ea565b919093604435908111610440576104a190369088016118ea565b946104ea6064359260018060a01b0380951697888a526104df8c60209b8d8d522054948d51986104d08a611a71565b338a528b8d8b01523691611af6565b8c8801523691611af6565b606085015242608085015260a08401526105446001938460c08201528a60e08201528a6101008201528a6101208201528a6101408201528a6101608201528a6101808201528a6101a0820152868b52848852898b20611bfc565b338952888652878920818a5286528789205461056f575b505050508452528082206104378154611ee9565b338952888652878920818a5286528789205492895b84811061059257505061055b565b868b528a8852898b20838c5288528a6105be828c80842093338152808d528181208882528d5220611b3c565b5081549091600160401b82101561077b57906105de918582018155611b3c565b91909161076a5790818a6105fc94938303610601575b505050611ee9565b610584565b610762928883541660018060a01b03199081835416178255878201908a89860154169082541617905561063a6002808501908301612095565b61064a6003808501908301612095565b8d8084015490820155600580840154908201556006809101920161070060ff809361068482855416879060ff801983541691151516179055565b8354865461ff001916600891821c8416151590911b61ff00161786558354865462ff00001916601091821c8416151590911b62ff0000161786558354865463ff0000001916601891821c8416151590911b63ff000000161786558354865464ff000000001916911c91909116151560201b60ff60201b16178455565b8054835460ff60281b1916602891821c8416151590911b60ff60281b161783558054835460ff60301b1916603091821c8416151590911b60ff60301b1617835554825460ff60381b1916603891821c929092161515901b60ff60381b16179055565b38808a6105f4565b634e487b7160e01b8d528c8b52878dfd5b634e487b7160e01b8e5260418c52888efd5b8480fd5b83823461033057806003193601126103305733815260019160208381528183208054916107bd83611adf565b946107ca85519687611abe565b8386529182528082208186015b8484106107eb578551806100f38982611957565b60078389926107f985611fc6565b8152019201930192906107d7565b503461033057806003193601126103305733815260016020528281209081549181825b848110610940575061083b9061216d565b93825b848110610852578651806100f38882611957565b61085c8184611b3c565b5060ff8060068093015460301c169182610928575b8261090c575b826108f3575b826108d7575b826108bb575b505061089e575b61089990611ee9565b61083e565b926108b36108999161016161015b8787611b3c565b939050610890565b9091506108c88386611b3c565b50015460281c16153880610889565b915080826108e58588611b3c565b50015460101c161591610883565b915080826109018588611b3c565b50015416159161087d565b9150808261091a8588611b3c565b50015460381c161591610877565b9150836109358487611b3c565b500154151591610871565b61094a8184611b3c565b5060ff8060068093015460301c169182610a0e575b826109f2575b826109d9575b826109bd575b826109a1575b505061098c575b61098790611ee9565b61082a565b9061099961098791611ee9565b91905061097e565b9091506109ae8386611b3c565b50015460281c16153880610977565b915080826109cb8588611b3c565b50015460101c161591610971565b915080826109e78588611b3c565b50015416159161096b565b91508082610a008588611b3c565b50015460381c161591610965565b915087610a1b8487611b3c565b50015415159161095f565b503461033057806003193601126103305733815260016020528281209081549181825b848110610b5c5750610a5a9061216d565b93825b848110610a71578651806100f38882611957565b610a7b8184611b3c565b50546001600160a01b0316331480610b46575b80610b2a575b80610b0e575b80610af2575b80610ad6575b610ab9575b610ab490611ee9565b610a5d565b92610ace610ab49161016161015b8787611b3c565b939050610aab565b5060ff6006610ae58386611b3c565b50015460301c1615610aa6565b5060ff6006610b018386611b3c565b50015460281c1615610aa0565b5060ff6006610b1d8386611b3c565b50015460101c1615610a9a565b5060ff6006610b398386611b3c565b50015460381c1615610a94565b5081610b528285611b3c565b5001541515610a8e565b610b668184611b3c565b50546001600160a01b0316331480610c29575b80610c0d575b80610bf1575b80610bd5575b80610bb9575b610ba4575b610b9f90611ee9565b610a49565b90610bb1610b9f91611ee9565b919050610b96565b5060ff6006610bc88386611b3c565b50015460301c1615610b91565b5060ff6006610be48386611b3c565b50015460281c1615610b8b565b5060ff6006610c008386611b3c565b50015460101c1615610b85565b5060ff6006610c1c8386611b3c565b50015460381c1615610b7f565b5085610c358285611b3c565b5001541515610b79565b509190346104445781600319360112610444576001600160401b0390803582811161078d57610c7190369083016118ea565b6024359384116104405736602385011215610440578383013592610c9484611adf565b94610ca187519687611abe565b84865260209460248688019160051b830101913683116111b2576024879101915b8383106111a2575050505085518481019083858337610cef86828681018c83820152038084520182611abe565b5190208651858101906329aa20a960e11b8252838152610d0e81611aa3565b51902003610d9857505050815191845b838110610d2d57505050505b51f35b80610d8e610d3e610d939385611f0e565b51338952600190818752610d74610d57828b8d20611b3c565b509160ff60068094015460081c161593338d5289528a8c20611b3c565b50019061ff00825491151560081b169061ff001916179055565b611ee9565b610d1e565b85518481019083858337610dba86828681018c83820152038084520182611abe565b519020865185810190664152434849564560c81b825260078152610ddd81611aa3565b51902003610ea057505050815191845b838110610dfb575050505051f35b80610d8e8685610e7f610e11610e9b9688611f0e565b51338c5260ff8c610e6983600197888852610e2e82828620611b3c565b5093896006998a8097018819815416905533835281815286610e5286868620611b3c565b5001805460ff60281b191690553383525220611b3c565b50015460101c161593338d5289528a8c20611b3c565b50019062ff0000825491151560101b169062ff00001916179055565b610ded565b85518481019083858337610ec286828681018c83820152038084520182611abe565b519020865185810190635350414d60e01b8252838152610ee181611aa3565b51902003610fa557505050815191845b838110610eff575050505051f35b80610d8e8685610f82610f15610fa09688611f0e565b51338c5260ff8c610f6c83600197888852610f3282828620611b3c565b5093896006998a8097018819815416905533835281815286610f5686868620611b3c565b5001805462ff0000191690553383525220611b3c565b50015460281c161593338d5289528a8c20611b3c565b50019060ff60281b825491151560281b169060ff60281b1916179055565b610ef1565b85518481019083858337610fc786828681018c83820152038084520182611abe565b51902090865185810191631491505160e21b83528152610fe681611aa3565b5190200361106c575050815191845b838110611003575050505051f35b80610d8e6110146110679385611f0e565b5133895260019081875261104961102d828b8d20611b3c565b509160ff6006809401548a1c161593338d5289528a8c20611b3c565b50019060ff60201b825491151560201b169060ff60201b1916179055565b610ff5565b61108d83865183819483830196873781018983820152038084520182611abe565b519020835182810190640a8a482a6960db1b8252600581526110ae81611aa3565b519020146110bb57505051f35b815191845b8381106110ce575050505051f35b806110dc6111509284611f0e565b51338852866001918287526110f381838c20611b3c565b5092600680940160ff198154169055338b52808852838b60ff8261111986888520611b3c565b50015460301c166111555750506111389250338b528752888a20611b3c565b5001805460ff60301b1916600160301b179055611ee9565b6110c0565b8361118a9561116a92338152858d5220611b3c565b5001805460ff60301b1916600160301b179055338b528752888a20611b3c565b5001805460ff60381b1916600160381b179055611ee9565b8235815291810191879101610cc2565b8980fd5b503461033057806003193601126103305733815260016020528281209081549181825b8481106112ef57506111ea9061216d565b93825b848110611201578651806100f38882611957565b61120b8184611b3c565b5060ff8060068093015460281c1691826112d7575b826112bb575b826112a2575b82611286575b8261126a575b505061124d575b61124890611ee9565b6111ed565b926112626112489161016161015b8787611b3c565b93905061123f565b9091506112778386611b3c565b50015460301c16153880611238565b915080826112948588611b3c565b50015460101c161591611232565b915080826112b08588611b3c565b50015416159161122c565b915080826112c98588611b3c565b50015460381c161591611226565b9150836112e48487611b3c565b500154151591611220565b6112f98184611b3c565b5060ff8060068093015460281c1691826113bd575b826113a1575b82611388575b8261136c575b82611350575b505061133b575b61133690611ee9565b6111d9565b9061134861133691611ee9565b91905061132d565b90915061135d8386611b3c565b50015460301c16153880611326565b9150808261137a8588611b3c565b50015460101c161591611320565b915080826113968588611b3c565b50015416159161131a565b915080826113af8588611b3c565b50015460381c161591611314565b9150876113ca8487611b3c565b50015415159161130e565b503461033057806003193601126103305733815260016020528281209081549181825b8481106114ab57506114099061216d565b93825b848110611420578651806100f38882611957565b61142a8184611b3c565b5060ff8060068093015460081c169182611493575b82611477575b505061145a575b61145590611ee9565b61140c565b9261146f6114559161016161015b8787611b3c565b93905061144c565b9091506114848386611b3c565b50015460381c16153880611445565b9150836114a08487611b3c565b50015415159161143f565b6114b58184611b3c565b5060ff8060068093015460081c169182611516575b826114fa575b50506114e5575b6114e090611ee9565b6113f8565b906114f26114e091611ee9565b9190506114d7565b9091506115078386611b3c565b50015460381c161538806114d0565b9150876115238487611b3c565b5001541515916114ca565b5090346115ac57602090816003193601126104445733835282825283832090358352815282822080549161156183611adf565b9361156e86519586611abe565b8385529182528082208185015b84841061158f578651806100f38882611957565b60078360019261159e85611fc6565b81520192019301929061157b565b5080fd5b503461033057806003193601126103305733815260016020528281209081549181825b8481106116e957506115e49061216d565b93825b8481106115fb578651806100f38882611957565b6116058184611b3c565b5060ff8060068093015460101c1691826116d1575b826116b5575b8261169c575b82611680575b82611664575b5050611647575b61164290611ee9565b6115e7565b9261165c6116429161016161015b8787611b3c565b939050611639565b9091506116718386611b3c565b50015460301c16153880611632565b9150808261168e8588611b3c565b50015460281c16159161162c565b915080826116aa8588611b3c565b500154161591611626565b915080826116c38588611b3c565b50015460381c161591611620565b9150836116de8487611b3c565b50015415159161161a565b6116f38184611b3c565b5060ff8060068093015460101c1691826117b7575b8261179b575b82611782575b82611766575b8261174a575b5050611735575b61173090611ee9565b6115d3565b9061174261173091611ee9565b919050611727565b9091506117578386611b3c565b50015460301c16153880611720565b915080826117748588611b3c565b50015460281c16159161171a565b915080826117908588611b3c565b500154161591611714565b915080826117a98588611b3c565b50015460381c16159161170e565b9150876117c48487611b3c565b500154151591611708565b84848492346118cb5760803660031901126118cb5781356024356001600160a01b03811690819003610440576001600160401b03906044358281116118c75761181b90369087016118ea565b90956064359384116118c357610d2a9661183e61185992611864963691016118ea565b93909461184a89611a71565b33895260208901523691611af6565b878601523691611af6565b60608301524260808301528060a08301528460c08301528460e08301528461010083015284610120830152846101408301528461016083015284610180830152846101a083015233855284602052838520908552602052828420611bfc565b8880fd5b8780fd5b8380fd5b600435906001600160a01b03821682036118e557565b600080fd5b9181601f840112156118e5578235916001600160401b0383116118e557602083818601950101116118e557565b919082519283825260005b848110611943575050826000602080949584010152601f8019910116010190565b602081830181015184830182015201611922565b602080820190808352835180925260409283810182858560051b8401019601946000925b85841061198c575050505050505090565b909192939495968580600192603f198582030187528a5190848060a01b038083511682528383015116838201526119e66119d3888401516101c0808b860152840190611917565b6060808501519084830390850152611917565b916080808201519083015260a0808201519083015260c08082015115159083015260e08082015115159083015261010080820151151590830152610120808201511515908301526101408082015115159083015261016080820151151590830152610180808201511515908301526101a080910151151591015299019401940192959493919061197b565b6101c081019081106001600160401b03821117611a8d57604052565b634e487b7160e01b600052604160045260246000fd5b604081019081106001600160401b03821117611a8d57604052565b90601f801991011681019081106001600160401b03821117611a8d57604052565b6001600160401b038111611a8d5760051b60200190565b9291926001600160401b038211611a8d5760405191611b1f601f8201601f191660200184611abe565b8294818452818301116118e5578281602093846000960137010152565b8054821015611b58576000526007602060002091020190600090565b634e487b7160e01b600052603260045260246000fd5b90600182811c92168015611b9e575b6020831014611b8857565b634e487b7160e01b600052602260045260246000fd5b91607f1691611b7d565b90601f8111611bb657505050565b600091825260208220906020601f850160051c83019410611bf2575b601f0160051c01915b828110611be757505050565b818155600101611bdb565b9092508290611bd2565b908154600160401b811015611a8d57611c1c906001938482018155611b3c565b611ed357815181546001600160a01b03199081166001600160a01b0392831617835560208085015184870180549093169316929092179055604083015180519194916001600160401b0391600285019190838211611a8d578190611c8a82611c848654611b6e565b86611ba8565b8890601f8311600114611e7057600092611e65575b5050600019600383901b1c191690841b1790555b60038301916060850151958651928311611a8d57611cd583611c848654611b6e565b80601f8411600114611df05750918080600695936101a09795611de39a600094611de5575b50501b916000199060031b1c19161790555b6080840151600482015560a084015160058201550191611d3e60c08201511515849060ff801983541691151516179055565b60e08101518354610100830151610120840151610140850151610160860151610180870151979096015160ff60381b90151560381b1667ffffffffffffff001990941694151560081b61ff00169490941791151560101b62ff0000169190911790151560181b63ff000000161791151560201b60ff60201b169190911791151560281b60ff60281b169190911760ff60301b92151560301b9290921691909117179055565b565b015192503880611cfa565b9193949596601f1984168660005283600020936000905b828210611e4e57505092600695928592611de39a99966101a0999610611e35575b505050811b019055611d0c565b015160001960f88460031b161c19169055388080611e28565b808886978294978701518155019601940190611e07565b015190503880611c9f565b90869350601f19831691856000528a6000209260005b8c828210611ebd5750508411611ea4575b505050811b019055611cb3565b015160001960f88460031b161c19169055388080611e97565b8385015186558a97909501949384019301611e86565b634e487b7160e01b600052600060045260246000fd5b6000198114611ef85760010190565b634e487b7160e01b600052601160045260246000fd5b8051821015611b585760209160051b010190565b9060405191826000825492611f3684611b6e565b908184526001948581169081600014611fa35750600114611f60575b5050611de392500383611abe565b9093915060005260209081600020936000915b818310611f8b575050611de393508201013880611f52565b85548884018501529485019487945091830191611f73565b915050611de394506020925060ff191682840152151560051b8201013880611f52565b90604051611fd381611a71565b6101a06006829460018060a01b038082541685526001820154166020850152611ffe60028201611f22565b604085015261200f60038201611f22565b606085015260048101546080850152600581015460a0850152015460ff90818116151560c0850152818160081c16151560e0850152818160101c161515610100850152818160181c161515610120850152818160201c161515610140850152818160281c161515610160850152818160301c16151561018085015260381c161515910152565b90808214612169576120a78154611b6e565b906001600160401b038211611a8d5781906120c682611c848654611b6e565b600090601f83116001146120fd576000926120f2575b50508160011b916000199060031b1c1916179055565b0154905038806120dc565b81526020808220858352818320935090601f1985169083905b828210612150575050908460019594939210612137575b505050811b019055565b015460001960f88460031b161c1916905538808061212d565b8495819295850154815560018091019601940190612116565b5050565b9061217782611adf565b60409061218682519182611abe565b8381528093612197601f1991611adf565b019160005b8381106121a95750505050565b60209082516121b781611a71565b6000815282600081830152606080868401528083015260006080830152600060a0830152600060c0830152600060e08301526000610100830152600061012083015260006101408301526000610160830152600061018083015260006101a083015282860101520161219c56fea2646970667358221220649e1db48f5029cc202e2a6fa570d0570dfa378de1bb0067f6839201a906383164736f6c63430008100033",
  "linkReferences": {},
  "deployedLinkReferences": {}
}