{
  "_format": "hh-sol-artifact-1",
  "contractName": "AVAXGods",
  "sourceName": "contracts/AvaxGods.sol",
  "abi": [
    {
      "inputs": [],
      "name": "archive",
      "outputs": [
        {
          "components": [
            {
              "internalType": "address",
              "name": "_from",
              "type": "address"
            },
            {
              "internalType": "address",
              "name": "_to",
              "type": "address"
            },
            {
              "internalType": "string",
              "name": "_subject",
              "type": "string"
            },
            {
              "internalType": "string",
              "name": "_markdown",
              "type": "string"
            },
            {
              "internalType": "uint256",
              "name": "_timeStamp",
              "type": "uint256"
            },
            {
              "internalType": "uint256",
              "name": "_index",
              "type": "uint256"
            },
            {
              "internalType": "bool",
              "name": "_inbox",
              "type": "bool"
            },
            {
              "internalType": "bool",
              "name": "_starred",
              "type": "bool"
            },
            {
              "internalType": "bool",
              "name": "_archive",
              "type": "bool"
            },
            {
              "internalType": "bool",
              "name": "_sent",
              "type": "bool"
            },
            {
              "internalType": "bool",
              "name": "_read",
              "type": "bool"
            },
            {
              "internalType": "bool",
              "name": "_spam",
              "type": "bool"
            },
            {
              "internalType": "bool",
              "name": "_trash",
              "type": "bool"
            },
            {
              "internalType": "bool",
              "name": "_unTracked",
              "type": "bool"
            },
            {
              "internalType": "bool",
              "name": "_isTop",
              "type": "bool"
            }
          ],
          "internalType": "struct AVAXGods.Mail[]",
          "name": "",
          "type": "tuple[]"
        }
      ],
      "stateMutability": "view",
      "type": "function"
    },
    {
      "inputs": [],
      "name": "chain",
      "outputs": [
        {
          "components": [
            {
              "internalType": "address",
              "name": "_from",
              "type": "address"
            },
            {
              "internalType": "address",
              "name": "_to",
              "type": "address"
            },
            {
              "internalType": "string",
              "name": "_subject",
              "type": "string"
            },
            {
              "internalType": "string",
              "name": "_markdown",
              "type": "string"
            },
            {
              "internalType": "uint256",
              "name": "_timeStamp",
              "type": "uint256"
            },
            {
              "internalType": "uint256",
              "name": "_index",
              "type": "uint256"
            },
            {
              "internalType": "bool",
              "name": "_inbox",
              "type": "bool"
            },
            {
              "internalType": "bool",
              "name": "_starred",
              "type": "bool"
            },
            {
              "internalType": "bool",
              "name": "_archive",
              "type": "bool"
            },
            {
              "internalType": "bool",
              "name": "_sent",
              "type": "bool"
            },
            {
              "internalType": "bool",
              "name": "_read",
              "type": "bool"
            },
            {
              "internalType": "bool",
              "name": "_spam",
              "type": "bool"
            },
            {
              "internalType": "bool",
              "name": "_trash",
              "type": "bool"
            },
            {
              "internalType": "bool",
              "name": "_unTracked",
              "type": "bool"
            },
            {
              "internalType": "bool",
              "name": "_isTop",
              "type": "bool"
            }
          ],
          "internalType": "struct AVAXGods.Mail[]",
          "name": "",
          "type": "tuple[]"
        }
      ],
      "stateMutability": "view",
      "type": "function"
    },
    {
      "inputs": [
        {
          "internalType": "address",
          "name": "_to",
          "type": "address"
        },
        {
          "internalType": "string",
          "name": "_subject",
          "type": "string"
        },
        {
          "internalType": "string",
          "name": "_markdown",
          "type": "string"
        },
        {
          "internalType": "uint256",
          "name": "time",
          "type": "uint256"
        }
      ],
      "name": "compose",
      "outputs": [],
      "stateMutability": "nonpayable",
      "type": "function"
    },
    {
      "inputs": [
        {
          "internalType": "address",
          "name": "_to",
          "type": "address"
        },
        {
          "internalType": "string",
          "name": "_subject",
          "type": "string"
        },
        {
          "internalType": "string",
          "name": "_markdown",
          "type": "string"
        },
        {
          "internalType": "uint256",
          "name": "_index",
          "type": "uint256"
        },
        {
          "internalType": "uint256",
          "name": "time",
          "type": "uint256"
        }
      ],
      "name": "forward",
      "outputs": [],
      "stateMutability": "nonpayable",
      "type": "function"
    },
    {
      "inputs": [
        {
          "internalType": "uint256",
          "name": "index",
          "type": "uint256"
        }
      ],
      "name": "getReply",
      "outputs": [
        {
          "components": [
            {
              "internalType": "address",
              "name": "_from",
              "type": "address"
            },
            {
              "internalType": "address",
              "name": "_to",
              "type": "address"
            },
            {
              "internalType": "string",
              "name": "_subject",
              "type": "string"
            },
            {
              "internalType": "string",
              "name": "_markdown",
              "type": "string"
            },
            {
              "internalType": "uint256",
              "name": "_timeStamp",
              "type": "uint256"
            },
            {
              "internalType": "uint256",
              "name": "_index",
              "type": "uint256"
            },
            {
              "internalType": "bool",
              "name": "_inbox",
              "type": "bool"
            },
            {
              "internalType": "bool",
              "name": "_starred",
              "type": "bool"
            },
            {
              "internalType": "bool",
              "name": "_archive",
              "type": "bool"
            },
            {
              "internalType": "bool",
              "name": "_sent",
              "type": "bool"
            },
            {
              "internalType": "bool",
              "name": "_read",
              "type": "bool"
            },
            {
              "internalType": "bool",
              "name": "_spam",
              "type": "bool"
            },
            {
              "internalType": "bool",
              "name": "_trash",
              "type": "bool"
            },
            {
              "internalType": "bool",
              "name": "_unTracked",
              "type": "bool"
            },
            {
              "internalType": "bool",
              "name": "_isTop",
              "type": "bool"
            }
          ],
          "internalType": "struct AVAXGods.Mail[]",
          "name": "",
          "type": "tuple[]"
        }
      ],
      "stateMutability": "view",
      "type": "function"
    },
    {
      "inputs": [],
      "name": "inbox",
      "outputs": [
        {
          "components": [
            {
              "internalType": "address",
              "name": "_from",
              "type": "address"
            },
            {
              "internalType": "address",
              "name": "_to",
              "type": "address"
            },
            {
              "internalType": "string",
              "name": "_subject",
              "type": "string"
            },
            {
              "internalType": "string",
              "name": "_markdown",
              "type": "string"
            },
            {
              "internalType": "uint256",
              "name": "_timeStamp",
              "type": "uint256"
            },
            {
              "internalType": "uint256",
              "name": "_index",
              "type": "uint256"
            },
            {
              "internalType": "bool",
              "name": "_inbox",
              "type": "bool"
            },
            {
              "internalType": "bool",
              "name": "_starred",
              "type": "bool"
            },
            {
              "internalType": "bool",
              "name": "_archive",
              "type": "bool"
            },
            {
              "internalType": "bool",
              "name": "_sent",
              "type": "bool"
            },
            {
              "internalType": "bool",
              "name": "_read",
              "type": "bool"
            },
            {
              "internalType": "bool",
              "name": "_spam",
              "type": "bool"
            },
            {
              "internalType": "bool",
              "name": "_trash",
              "type": "bool"
            },
            {
              "internalType": "bool",
              "name": "_unTracked",
              "type": "bool"
            },
            {
              "internalType": "bool",
              "name": "_isTop",
              "type": "bool"
            }
          ],
          "internalType": "struct AVAXGods.Mail[]",
          "name": "",
          "type": "tuple[]"
        }
      ],
      "stateMutability": "view",
      "type": "function"
    },
    {
      "inputs": [
        {
          "internalType": "string",
          "name": "_to",
          "type": "string"
        },
        {
          "internalType": "uint256[]",
          "name": "_indexes",
          "type": "uint256[]"
        }
      ],
      "name": "move",
      "outputs": [],
      "stateMutability": "nonpayable",
      "type": "function"
    },
    {
      "inputs": [
        {
          "internalType": "uint256",
          "name": "_index",
          "type": "uint256"
        },
        {
          "internalType": "address",
          "name": "_to",
          "type": "address"
        },
        {
          "internalType": "string",
          "name": "_subject",
          "type": "string"
        },
        {
          "internalType": "string",
          "name": "_markdown",
          "type": "string"
        },
        {
          "internalType": "address",
          "name": "_from",
          "type": "address"
        },
        {
          "internalType": "uint256",
          "name": "time",
          "type": "uint256"
        }
      ],
      "name": "reply",
      "outputs": [],
      "stateMutability": "nonpayable",
      "type": "function"
    },
    {
      "inputs": [],
      "name": "sent",
      "outputs": [
        {
          "components": [
            {
              "internalType": "address",
              "name": "_from",
              "type": "address"
            },
            {
              "internalType": "address",
              "name": "_to",
              "type": "address"
            },
            {
              "internalType": "string",
              "name": "_subject",
              "type": "string"
            },
            {
              "internalType": "string",
              "name": "_markdown",
              "type": "string"
            },
            {
              "internalType": "uint256",
              "name": "_timeStamp",
              "type": "uint256"
            },
            {
              "internalType": "uint256",
              "name": "_index",
              "type": "uint256"
            },
            {
              "internalType": "bool",
              "name": "_inbox",
              "type": "bool"
            },
            {
              "internalType": "bool",
              "name": "_starred",
              "type": "bool"
            },
            {
              "internalType": "bool",
              "name": "_archive",
              "type": "bool"
            },
            {
              "internalType": "bool",
              "name": "_sent",
              "type": "bool"
            },
            {
              "internalType": "bool",
              "name": "_read",
              "type": "bool"
            },
            {
              "internalType": "bool",
              "name": "_spam",
              "type": "bool"
            },
            {
              "internalType": "bool",
              "name": "_trash",
              "type": "bool"
            },
            {
              "internalType": "bool",
              "name": "_unTracked",
              "type": "bool"
            },
            {
              "internalType": "bool",
              "name": "_isTop",
              "type": "bool"
            }
          ],
          "internalType": "struct AVAXGods.Mail[]",
          "name": "",
          "type": "tuple[]"
        }
      ],
      "stateMutability": "view",
      "type": "function"
    },
    {
      "inputs": [],
      "name": "spam",
      "outputs": [
        {
          "components": [
            {
              "internalType": "address",
              "name": "_from",
              "type": "address"
            },
            {
              "internalType": "address",
              "name": "_to",
              "type": "address"
            },
            {
              "internalType": "string",
              "name": "_subject",
              "type": "string"
            },
            {
              "internalType": "string",
              "name": "_markdown",
              "type": "string"
            },
            {
              "internalType": "uint256",
              "name": "_timeStamp",
              "type": "uint256"
            },
            {
              "internalType": "uint256",
              "name": "_index",
              "type": "uint256"
            },
            {
              "internalType": "bool",
              "name": "_inbox",
              "type": "bool"
            },
            {
              "internalType": "bool",
              "name": "_starred",
              "type": "bool"
            },
            {
              "internalType": "bool",
              "name": "_archive",
              "type": "bool"
            },
            {
              "internalType": "bool",
              "name": "_sent",
              "type": "bool"
            },
            {
              "internalType": "bool",
              "name": "_read",
              "type": "bool"
            },
            {
              "internalType": "bool",
              "name": "_spam",
              "type": "bool"
            },
            {
              "internalType": "bool",
              "name": "_trash",
              "type": "bool"
            },
            {
              "internalType": "bool",
              "name": "_unTracked",
              "type": "bool"
            },
            {
              "internalType": "bool",
              "name": "_isTop",
              "type": "bool"
            }
          ],
          "internalType": "struct AVAXGods.Mail[]",
          "name": "",
          "type": "tuple[]"
        }
      ],
      "stateMutability": "view",
      "type": "function"
    },
    {
      "inputs": [],
      "name": "star",
      "outputs": [
        {
          "components": [
            {
              "internalType": "address",
              "name": "_from",
              "type": "address"
            },
            {
              "internalType": "address",
              "name": "_to",
              "type": "address"
            },
            {
              "internalType": "string",
              "name": "_subject",
              "type": "string"
            },
            {
              "internalType": "string",
              "name": "_markdown",
              "type": "string"
            },
            {
              "internalType": "uint256",
              "name": "_timeStamp",
              "type": "uint256"
            },
            {
              "internalType": "uint256",
              "name": "_index",
              "type": "uint256"
            },
            {
              "internalType": "bool",
              "name": "_inbox",
              "type": "bool"
            },
            {
              "internalType": "bool",
              "name": "_starred",
              "type": "bool"
            },
            {
              "internalType": "bool",
              "name": "_archive",
              "type": "bool"
            },
            {
              "internalType": "bool",
              "name": "_sent",
              "type": "bool"
            },
            {
              "internalType": "bool",
              "name": "_read",
              "type": "bool"
            },
            {
              "internalType": "bool",
              "name": "_spam",
              "type": "bool"
            },
            {
              "internalType": "bool",
              "name": "_trash",
              "type": "bool"
            },
            {
              "internalType": "bool",
              "name": "_unTracked",
              "type": "bool"
            },
            {
              "internalType": "bool",
              "name": "_isTop",
              "type": "bool"
            }
          ],
          "internalType": "struct AVAXGods.Mail[]",
          "name": "",
          "type": "tuple[]"
        }
      ],
      "stateMutability": "view",
      "type": "function"
    },
    {
      "inputs": [],
      "name": "trash",
      "outputs": [
        {
          "components": [
            {
              "internalType": "address",
              "name": "_from",
              "type": "address"
            },
            {
              "internalType": "address",
              "name": "_to",
              "type": "address"
            },
            {
              "internalType": "string",
              "name": "_subject",
              "type": "string"
            },
            {
              "internalType": "string",
              "name": "_markdown",
              "type": "string"
            },
            {
              "internalType": "uint256",
              "name": "_timeStamp",
              "type": "uint256"
            },
            {
              "internalType": "uint256",
              "name": "_index",
              "type": "uint256"
            },
            {
              "internalType": "bool",
              "name": "_inbox",
              "type": "bool"
            },
            {
              "internalType": "bool",
              "name": "_starred",
              "type": "bool"
            },
            {
              "internalType": "bool",
              "name": "_archive",
              "type": "bool"
            },
            {
              "internalType": "bool",
              "name": "_sent",
              "type": "bool"
            },
            {
              "internalType": "bool",
              "name": "_read",
              "type": "bool"
            },
            {
              "internalType": "bool",
              "name": "_spam",
              "type": "bool"
            },
            {
              "internalType": "bool",
              "name": "_trash",
              "type": "bool"
            },
            {
              "internalType": "bool",
              "name": "_unTracked",
              "type": "bool"
            },
            {
              "internalType": "bool",
              "name": "_isTop",
              "type": "bool"
            }
          ],
          "internalType": "struct AVAXGods.Mail[]",
          "name": "",
          "type": "tuple[]"
        }
      ],
      "stateMutability": "view",
      "type": "function"
    }
  ],
  "bytecode": "0x6080806040523461001657612713908161001c8239f35b600080fdfe6080604052600436101561001257600080fd5b60003560e01c806302a2146014611b575780631c39809914611ad05780632c6dbb1c1461196e57806347966bc21461174657806365ffb3c2146112c057806381ecc7f414610ffd578063917bb5d014610a5a578063c2bfccc0146107ee578063c3e70055146105c6578063c763e5a11461054b578063dfcfa9c5146103365763fb0e722b146100a057600080fd5b3461033157600036600319011261033157336000526001602052604060002080546000805b82811061022857506100d69061261e565b9160009060005b8381106100f657604051806100f28782611dbf565b0390f35b6101008183611fde565b5060ff8060068093015416918261020f575b826101f3575b826101d7575b826101bb575b8261019f575b82610183575b5050610145575b6101409061238c565b6100dd565b9161017b6101409161016061015a8686611fde565b50612469565b61016a82896123b1565b5261017581886123b1565b5061238c565b929050610137565b9091506101908385611fde565b50015460181c16153880610130565b915080826101ad8587611fde565b50015460301c16159161012a565b915080826101c98587611fde565b50015460281c161591610124565b915080826101e58587611fde565b50015460101c16159161011e565b915080826102018587611fde565b50015460381c161591610118565b9150600461021d8486611fde565b500154151591610112565b6102328185611fde565b5060ff80600680930154169182610318575b826102fc575b826102e0575b826102c4575b826102a8575b8261028c575b5050610277575b6102729061238c565b6100c5565b906102846102729161238c565b919050610269565b9091506102998387611fde565b50015460181c16153880610262565b915080826102b68589611fde565b50015460301c16159161025c565b915080826102d28589611fde565b50015460281c161591610256565b915080826102ee8589611fde565b50015460101c161591610250565b9150808261030a8589611fde565b50015460381c16159161024a565b915060046103268488611fde565b500154151591610244565b600080fd5b346103315760803660031901126103315761034f611ee6565b6001600160401b036024358181116103315761036f903690600401611efc565b906044359283116103315761047e6104f89161039261050b953690600401611efc565b92903360005260046020526040600020549360018060a01b03891660005261047260406000205494604051966103c788611f29565b3388526001600160a01b038c1660208901526103e4368b84611f98565b60408901526103f4368587611f98565b6060890152606435608089015260a0880152600060c0880152600060e08801526000610100880152600061012088015260006101408801526000610160880152600061018088015260006101a088015260006101c0880152604051986104598a611f29565b338a526001600160a01b038c1660208b01523691611f98565b60408801523691611f98565b6060850152606435608085015260a0840152600060c0840152600060e0840152600061010084015260006101408401526000610160840152600061018084015260006101a084015260006101c0840152600160c0820152600161012084015260018060a01b0385166000526001602052604060002061209e565b336000526001602052604060002061209e565b3360005260046020526040600020610523815461238c565b90556001600160a01b0316600090815260046020526040902080546105479061238c565b9055005b34610331576000366003190112610331573360005260016020818152604060002080549061057882611f81565b926105866040519485611f60565b82845260009182528082208185015b8484106105aa57604051806100f28882611dbf565b60078388926105b885612469565b815201920193019290610595565b3461033157600036600319011261033157336000526001602052604060002080546000805b82811061070757506105fc9061261e565b9160009060005b83811061061857604051806100f28782611dbf565b6106228183611fde565b5060ff8060068093015460301c1691826106ee575b826106d2575b826106b9575b8261069d575b82610681575b5050610664575b61065f9061238c565b610603565b9161067961065f9161016061015a8686611fde565b929050610656565b90915061068e8385611fde565b50015460281c1615868061064f565b915080826106ab8587611fde565b50015460101c161591610649565b915080826106c78587611fde565b500154161591610643565b915080826106e08587611fde565b50015460381c16159161063d565b915060046106fc8486611fde565b500154151591610637565b6107118185611fde565b5060ff8060068093015460301c1691826107d5575b826107b9575b826107a0575b82610784575b82610768575b5050610753575b61074e9061238c565b6105eb565b9061076061074e9161238c565b919050610745565b9091506107758387611fde565b50015460281c1615858061073e565b915080826107928589611fde565b50015460101c161591610738565b915080826107ae8589611fde565b500154161591610732565b915080826107c78589611fde565b50015460381c16159161072c565b915060046107e38488611fde565b500154151591610726565b3461033157600036600319011261033157336000526001602052604060002080546000805b82811061095157506108249061261e565b9160009060005b83811061084057604051806100f28782611dbf565b61084a8183611fde565b5060ff8060068093015460181c169182610938575b8261091c575b82610900575b826108e4575b826108c8575b826108af575b5050610892575b61088d9061238c565b61082b565b916108a761088d9161016061015a8686611fde565b929050610884565b9091506108bc8385611fde565b5001541615868061087d565b915080826108d68587611fde565b50015460301c161591610877565b915080826108f28587611fde565b50015460281c161591610871565b9150808261090e8587611fde565b50015460101c16159161086b565b9150808261092a8587611fde565b50015460381c161591610865565b915060046109468486611fde565b50015415159161085f565b61095b8185611fde565b5060ff8060068093015460181c169182610a41575b82610a25575b82610a09575b826109ed575b826109d1575b826109b8575b50506109a3575b61099e9061238c565b610813565b906109b061099e9161238c565b919050610995565b9091506109c58387611fde565b5001541615858061098e565b915080826109df8589611fde565b50015460301c161591610988565b915080826109fb8589611fde565b50015460281c161591610982565b91508082610a178589611fde565b50015460101c16159161097c565b91508082610a338589611fde565b50015460381c161591610976565b91506004610a4f8488611fde565b500154151591610970565b34610331576040366003190112610331576001600160401b0360043581811161033157610a8b903690600401611efc565b90602435928311610331573660238401121561033157826004013591610ab083611f81565b93610abe6040519586611f60565b83855260209360248587019160051b83010191368311610331576024869101915b838310610fed57505050506040518381019082848337610b0e8582858101600083820152038084520182611f60565b519020604051848101906329aa20a960e11b825260048152610b2f81611f45565b51902003610bbf5750509080519060005b828110610b4e57505050505b005b80610bb5610b5f610bba93856123b1565b5133600052600190818852610b9b610b7b826040600020611fde565b509160ff60068094015460081c161593336000528a526040600020611fde565b50019061ff00825491151560081b169061ff001916179055565b61238c565b610b40565b6040518381019082848337610be38582858101600083820152038084520182611f60565b51902060405184810190664152434849564560c81b825260078152610c0781611f45565b51902003610cd25750509080519060005b828110610c2157005b80610bb5610c32610ccd93856123b1565b5133600052600190818852610cb1610c4e826040600020611fde565b5091600680930160ff19815416905533600052838a5282610c73826040600020611fde565b500160ff60281b19815416905533600052838a5260ff83610c98836040600020611fde565b50015460101c161593336000528a526040600020611fde565b50019062ff0000825491151560101b169062ff00001916179055565b610c18565b6040518381019082848337610cf68582858101600083820152038084520182611f60565b51902060405184810190635350414d60e01b825260048152610d1781611f45565b51902003610de35750509080519060005b828110610d3157005b80610bb5610d42610dde93856123b1565b5133600052600190818852610dc0610d5e826040600020611fde565b5091600680930160ff19815416905533600052838a5282610d83826040600020611fde565b500162ff000019815416905533600052838a5260ff83610da7836040600020611fde565b50015460281c161593336000528a526040600020611fde565b50019060ff60281b825491151560281b169060ff60281b1916179055565b610d28565b6040518381019082848337610e078582858101600083820152038084520182611f60565b51902060405184810190631491505160e21b825260048152610e2881611f45565b51902003610eb15750509080519060005b828110610e4257005b80610bb5610e53610eac93856123b1565b5133600052600190818852610e8e610e6f826040600020611fde565b509160ff6006809401548b1c161593336000528a526040600020611fde565b50019060ff60201b825491151560201b169060ff60201b1916179055565b610e39565b610ed4836040518381948383019687378101600083820152038084520182611f60565b51902060405182810190640a8a482a6960db1b825260058152610ef681611f45565b51902014610f0057005b81519060005b828110610f0f57005b80610f1d610f9392866123b1565b51336000526001808552610f35826040600020611fde565b5091600680930160ff1981541690553360005281865260ff83610f5c836040600020611fde565b50015460301c16610f9857610f7b913360005286526040600020611fde565b5001805460ff60301b1916600160301b17905561238c565b610f06565b610fd5913360005280875283610fb2836040600020611fde565b5001600160301b60ff60301b198254161790553360005286526040600020611fde565b5001805460ff60381b1916600160381b17905561238c565b8235815291810191869101610adf565b346103315760c0366003190112610331576024356001600160a01b038181169160043590839003610331576001600160401b039260443584811161033157611049903690600401611efc565b91909360643586811161033157611064903690600401611efc565b90608435928316809303610331576110a790611098604051986110868a611f29565b338a5260209787898c01523691611f98565b92604089019384523691611f98565b606087015260a43560808701528460a0870152600060e0870152600061010087015260006101208701526000610160870152600061018087015260006101a087015260006101c08701526001908160c0880152600061014088015283600052600085526040600020866000528552604060002054156000146112915783600052818552600661113a876040600020611fde565b500163ff00000019815416905583600052818552600661115e876040600020611fde565b50018260ff198254161790555196836000528185526002611183876040600020611fde565b500191885191821161127b576111a38261119d8554612010565b8561204a565b8598601f8311600114611218578291610b4c9a839260009461120d575b50501b916000199060031b1c19161790555b6000526000825260406000208360005282526111f284604060002061209e565b6000526000815260406000209160005252604060002061209e565b015192508b806111c0565b601f9291921982169984600052876000209160005b8c8110611266575083610b4c9c1061124d575b505050811b0190556111d2565b015160001960f88460031b161c19169055898080611240565b8183015184559285019291890191890161122d565b634e487b7160e01b600052604160045260246000fd5b50610b4c965082600052835260066112ad856040600020611fde565b5001805464ff00000000191690556111d2565b346103315760a0366003190112610331576112d9611ee6565b6001600160401b03602435818111610331576112f9903690600401611efc565b906044359283116103315761142461131861148f943690600401611efc565b60018060a01b03871660005260046020526113df6040600020546040519061133f82611f29565b3382526001600160a01b038a16602083015261135c368989611f98565b604083015261136c368587611f98565b6060830152608435608083015260a0820152600160c0820152600060e08201526000610100820152600061012082015260006101408201526000610160820152600061018082015260006101a082015260006101c082015260018060a01b0389166000526001602052604060002061209e565b33600052600460205261141860406000205494604051966113ff88611f29565b3388526001600160a01b038a1660208901523691611f98565b60408601523691611f98565b6060830152608435608083015260a0820152600060c0820152600060e0820152600061010082015260006101408201526000610160820152600061018082015260006101a082015260006101c08201526001610120820152336000526001602052604060002061209e565b336000526000602052604060002060643590816000526020526040600020546114f0575b506001600160a01b0316600090815260046020526040902080546114d69061238c565b90553360005260046020526040600020610547815461238c565b33600052600060205260406000208160005260205260406000205460005b81811061151c5750506114b3565b60018060a01b0384166000526000602052604060002083600052602052604060002090336000526000602052604060002084600052602052611562816040600020611fde565b50918054600160401b81101561127b5761158191600182018155611fde565b611730578261159893820361159d575b505061238c565b61150e565b805482546001600160a01b039182166001600160a01b03199182161784556001808401549085018054919093169116179055611729916115e36002808401908301612546565b6115f36003808401908301612546565b60048201546004820155600580830154908201556006809101910160ff9061162a82825416849060ff801983541691151516179055565b8054835461ff001916600891821c8416151590911b61ff00161783558054835462ff00001916601091821c8416151590911b62ff0000161783558054835463ff0000001916601891821c8416151590911b63ff000000161783558054835464ff000000001916602091821c8416151590911b60ff60201b161783558054835465ff00000000001916602891821c8416151590911b60ff60281b161783558054835460ff60301b1916603091821c8416151590911b60ff60301b161783558054835460ff60381b1916603891821c8416151590911b60ff60381b1617835554825460ff60401b1916604091821c929092161515901b60ff60401b16179055565b8580611591565b634e487b7160e01b600052600060045260246000fd5b3461033157600036600319011261033157336000526001602052604060002080546000805b828110611887575061177c9061261e565b9160009060005b83811061179857604051806100f28782611dbf565b6117a28183611fde565b5060ff8060068093015460281c16918261186e575b82611852575b82611839575b8261181d575b82611801575b50506117e4575b6117df9061238c565b611783565b916117f96117df9161016061015a8686611fde565b9290506117d6565b90915061180e8385611fde565b50015460301c161586806117cf565b9150808261182b8587611fde565b50015460101c1615916117c9565b915080826118478587611fde565b5001541615916117c3565b915080826118608587611fde565b50015460381c1615916117bd565b9150600461187c8486611fde565b5001541515916117b7565b6118918185611fde565b5060ff8060068093015460281c169182611955575b82611939575b82611920575b82611904575b826118e8575b50506118d3575b6118ce9061238c565b61176b565b906118e06118ce9161238c565b9190506118c5565b9091506118f58387611fde565b50015460301c161585806118be565b915080826119128589611fde565b50015460101c1615916118b8565b9150808261192e8589611fde565b5001541615916118b2565b915080826119478589611fde565b50015460381c1615916118ac565b915060046119638488611fde565b5001541515916118a6565b3461033157600036600319011261033157336000526001602052604060002080546000805b828110611a4c57506119a49061261e565b9160009060005b8381106119c057604051806100f28782611dbf565b6119ca8183611fde565b5060ff8060068093015460081c169182611a33575b82611a17575b50506119fa575b6119f59061238c565b6119ab565b91611a0f6119f59161016061015a8686611fde565b9290506119ec565b909150611a248385611fde565b50015460381c161586806119e5565b91506004611a418486611fde565b5001541515916119df565b611a568185611fde565b5060ff8060068093015460081c169182611ab7575b82611a9b575b5050611a86575b611a819061238c565b611993565b90611a93611a819161238c565b919050611a78565b909150611aa88387611fde565b50015460381c16158580611a71565b91506004611ac58488611fde565b500154151591611a6b565b34610331576020806003193601126103315733600052600081526040600020600435600052815260406000208054611b0781611f81565b91611b156040519384611f60565b8183526000908152838120938084015b838310611b3a57604051806100f28782611dbf565b600782600192611b4989612469565b815201960192019194611b25565b3461033157600036600319011261033157336000526001602052604060002080546000805b828110611c985750611b8d9061261e565b9160009060005b838110611ba957604051806100f28782611dbf565b611bb38183611fde565b5060ff8060068093015460101c169182611c7f575b82611c63575b82611c4a575b82611c2e575b82611c12575b5050611bf5575b611bf09061238c565b611b94565b91611c0a611bf09161016061015a8686611fde565b929050611be7565b909150611c1f8385611fde565b50015460301c16158680611be0565b91508082611c3c8587611fde565b50015460281c161591611bda565b91508082611c588587611fde565b500154161591611bd4565b91508082611c718587611fde565b50015460381c161591611bce565b91506004611c8d8486611fde565b500154151591611bc8565b611ca28185611fde565b5060ff8060068093015460101c169182611d66575b82611d4a575b82611d31575b82611d15575b82611cf9575b5050611ce4575b611cdf9061238c565b611b7c565b90611cf1611cdf9161238c565b919050611cd6565b909150611d068387611fde565b50015460301c16158580611ccf565b91508082611d238589611fde565b50015460281c161591611cc9565b91508082611d3f8589611fde565b500154161591611cc3565b91508082611d588589611fde565b50015460381c161591611cbd565b91506004611d748488611fde565b500154151591611cb7565b919082519283825260005b848110611dab575050826000602080949584010152601f8019910116010190565b602081830181015184830182015201611d8a565b602080820190808352835180925260409283810182858560051b8401019601946000925b858410611df4575050505050505090565b909192939495968580600192603f198582030187528a5190848060a01b03808351168252838301511683820152611e4e611e3b888401516101e0808b860152840190611d7f565b6060808501519084830390850152611d7f565b916080808201519083015260a0808201519083015260c08082015115159083015260e08082015115159083015261010080820151151590830152610120808201511515908301526101408082015115159083015261016080820151151590830152610180808201511515908301526101a0808201511515908301526101c0809101511515910152990194019401929594939190611de3565b600435906001600160a01b038216820361033157565b9181601f84011215610331578235916001600160401b038311610331576020838186019501011161033157565b6101e081019081106001600160401b0382111761127b57604052565b604081019081106001600160401b0382111761127b57604052565b90601f801991011681019081106001600160401b0382111761127b57604052565b6001600160401b03811161127b5760051b60200190565b9291926001600160401b03821161127b5760405191611fc1601f8201601f191660200184611f60565b829481845281830111610331578281602093846000960137010152565b8054821015611ffa576000526007602060002091020190600090565b634e487b7160e01b600052603260045260246000fd5b90600182811c92168015612040575b602083101461202a57565b634e487b7160e01b600052602260045260246000fd5b91607f169161201f565b90601f811161205857505050565b600091825260208220906020601f850160051c83019410612094575b601f0160051c01915b82811061208957505050565b81815560010161207d565b9092508290612074565b908154600160401b81101561127b576120be906001938482018155611fde565b61173057815181546001600160a01b03199081166001600160a01b0392831617835560208085015184870180549093169316929092179055604083015180519194916001600160401b039160028501919083821161127b57819061212c826121268654612010565b8661204a565b8890601f83116001146123295760009261231e575b5050600019600383901b1c191690841b1790555b6003830191606085015195865192831161127b57612177836121268654612010565b80601f84116001146122a95750918080600695936101c0979561229c9a60009461229e575b50501b916000199060031b1c19161790555b6080840151600482015560a0840151600582015501916121e060c08201511515849060ff801983541691151516179055565b60e081015183546101008301516101208401516101408501516101608601516101808701516101a0880151989097015160ff60401b90151560401b1668ffffffffffffffff001990951695151560081b61ff00169590951792151560101b62ff0000169290921790151560181b63ff000000161790151560201b60ff60201b161791151560281b60ff60281b169190911760ff60301b92151560301b929092169190911760ff60381b92151560381b9290921691909117179055565b565b01519250388061219c565b9193949596601f1984168660005283600020936000905b8282106123075750509260069592859261229c9a99966101c09996106122ee575b505050811b0190556121ae565b015160001960f88460031b161c191690553880806122e1565b8088869782949787015181550196019401906122c0565b015190503880612141565b90869350601f19831691856000528a6000209260005b8c828210612376575050841161235d575b505050811b019055612155565b015160001960f88460031b161c19169055388080612350565b8385015186558a9790950194938401930161233f565b600019811461239b5760010190565b634e487b7160e01b600052601160045260246000fd5b8051821015611ffa5760209160051b010190565b90604051918260008254926123d984612010565b9081845260019485811690816000146124465750600114612403575b505061229c92500383611f60565b9093915060005260209081600020936000915b81831061242e57505061229c935082010138806123f5565b85548884018501529485019487945091830191612416565b91505061229c94506020925060ff191682840152151560051b82010138806123f5565b9060405161247681611f29565b6101c06006829460018060a01b0380825416855260018201541660208501526124a1600282016123c5565b60408501526124b2600382016123c5565b606085015260048101546080850152600581015460a0850152015460ff90818116151560c0850152818160081c16151560e0850152818160101c161515610100850152818160181c161515610120850152818160201c161515610140850152818160281c161515610160850152818160301c161515610180850152818160381c1615156101a085015260401c161515910152565b9080821461261a576125588154612010565b906001600160401b03821161127b578190612577826121268654612010565b600090601f83116001146125ae576000926125a3575b50508160011b916000199060031b1c1916179055565b01549050388061258d565b81526020808220858352818320935090601f1985169083905b8282106126015750509084600195949392106125e8575b505050811b019055565b015460001960f88460031b161c191690553880806125de565b84958192958501548155600180910196019401906125c7565b5050565b9061262882611f81565b60409061263782519182611f60565b8381528093612648601f1991611f81565b019160005b83811061265a5750505050565b602090825161266881611f29565b6000815282600081830152606080868401528083015260006080830152600060a0830152600060c0830152600060e08301526000610100830152600061012083015260006101408301526000610160830152600061018083015260006101a083015260006101c083015282860101520161264d56fea264697066735822122086825cf9c940ea35c5fb2504d32e9aeb8275492051bfbdc272afa33a91fcaca664736f6c63430008100033",
  "linkReferences": {},
  "deployedLinkReferences": {}
}