{
  "_format": "hh-sol-artifact-1",
  "contractName": "AVAXGods",
  "sourceName": "contracts/AvaxGods.sol",
  "abi": [
    {
      "inputs": [],
      "name": "archive",
      "outputs": [
        {
          "components": [
            {
              "internalType": "address",
              "name": "_from",
              "type": "address"
            },
            {
              "internalType": "address",
              "name": "_to",
              "type": "address"
            },
            {
              "internalType": "string",
              "name": "_subject",
              "type": "string"
            },
            {
              "internalType": "string",
              "name": "_markdown",
              "type": "string"
            },
            {
              "internalType": "uint256",
              "name": "_timeStamp",
              "type": "uint256"
            },
            {
              "internalType": "uint256",
              "name": "_index",
              "type": "uint256"
            },
            {
              "internalType": "uint256",
              "name": "_idx",
              "type": "uint256"
            },
            {
              "internalType": "bool",
              "name": "_inbox",
              "type": "bool"
            },
            {
              "internalType": "bool",
              "name": "_starred",
              "type": "bool"
            },
            {
              "internalType": "bool",
              "name": "_archive",
              "type": "bool"
            },
            {
              "internalType": "bool",
              "name": "_sent",
              "type": "bool"
            },
            {
              "internalType": "bool",
              "name": "_read",
              "type": "bool"
            },
            {
              "internalType": "bool",
              "name": "_spam",
              "type": "bool"
            },
            {
              "internalType": "bool",
              "name": "_trash",
              "type": "bool"
            },
            {
              "internalType": "bool",
              "name": "_unTracked",
              "type": "bool"
            },
            {
              "internalType": "bool",
              "name": "_isTop",
              "type": "bool"
            },
            {
              "internalType": "address",
              "name": "_sender",
              "type": "address"
            }
          ],
          "internalType": "struct AVAXGods.Mail[]",
          "name": "",
          "type": "tuple[]"
        }
      ],
      "stateMutability": "view",
      "type": "function"
    },
    {
      "inputs": [],
      "name": "chain",
      "outputs": [
        {
          "components": [
            {
              "internalType": "address",
              "name": "_from",
              "type": "address"
            },
            {
              "internalType": "address",
              "name": "_to",
              "type": "address"
            },
            {
              "internalType": "string",
              "name": "_subject",
              "type": "string"
            },
            {
              "internalType": "string",
              "name": "_markdown",
              "type": "string"
            },
            {
              "internalType": "uint256",
              "name": "_timeStamp",
              "type": "uint256"
            },
            {
              "internalType": "uint256",
              "name": "_index",
              "type": "uint256"
            },
            {
              "internalType": "uint256",
              "name": "_idx",
              "type": "uint256"
            },
            {
              "internalType": "bool",
              "name": "_inbox",
              "type": "bool"
            },
            {
              "internalType": "bool",
              "name": "_starred",
              "type": "bool"
            },
            {
              "internalType": "bool",
              "name": "_archive",
              "type": "bool"
            },
            {
              "internalType": "bool",
              "name": "_sent",
              "type": "bool"
            },
            {
              "internalType": "bool",
              "name": "_read",
              "type": "bool"
            },
            {
              "internalType": "bool",
              "name": "_spam",
              "type": "bool"
            },
            {
              "internalType": "bool",
              "name": "_trash",
              "type": "bool"
            },
            {
              "internalType": "bool",
              "name": "_unTracked",
              "type": "bool"
            },
            {
              "internalType": "bool",
              "name": "_isTop",
              "type": "bool"
            },
            {
              "internalType": "address",
              "name": "_sender",
              "type": "address"
            }
          ],
          "internalType": "struct AVAXGods.Mail[]",
          "name": "",
          "type": "tuple[]"
        }
      ],
      "stateMutability": "view",
      "type": "function"
    },
    {
      "inputs": [
        {
          "internalType": "address",
          "name": "_to",
          "type": "address"
        },
        {
          "internalType": "string",
          "name": "_subject",
          "type": "string"
        },
        {
          "internalType": "string",
          "name": "_markdown",
          "type": "string"
        },
        {
          "internalType": "uint256",
          "name": "time",
          "type": "uint256"
        }
      ],
      "name": "compose",
      "outputs": [],
      "stateMutability": "nonpayable",
      "type": "function"
    },
    {
      "inputs": [
        {
          "internalType": "address",
          "name": "_to",
          "type": "address"
        },
        {
          "internalType": "string",
          "name": "_subject",
          "type": "string"
        },
        {
          "internalType": "string",
          "name": "_markdown",
          "type": "string"
        },
        {
          "internalType": "uint256",
          "name": "_index",
          "type": "uint256"
        },
        {
          "internalType": "uint256",
          "name": "time",
          "type": "uint256"
        },
        {
          "internalType": "uint256",
          "name": "idx",
          "type": "uint256"
        }
      ],
      "name": "forward",
      "outputs": [
        {
          "components": [
            {
              "internalType": "address",
              "name": "_from",
              "type": "address"
            },
            {
              "internalType": "address",
              "name": "_to",
              "type": "address"
            },
            {
              "internalType": "string",
              "name": "_subject",
              "type": "string"
            },
            {
              "internalType": "string",
              "name": "_markdown",
              "type": "string"
            },
            {
              "internalType": "uint256",
              "name": "_timeStamp",
              "type": "uint256"
            },
            {
              "internalType": "uint256",
              "name": "_index",
              "type": "uint256"
            },
            {
              "internalType": "uint256",
              "name": "_idx",
              "type": "uint256"
            },
            {
              "internalType": "bool",
              "name": "_inbox",
              "type": "bool"
            },
            {
              "internalType": "bool",
              "name": "_starred",
              "type": "bool"
            },
            {
              "internalType": "bool",
              "name": "_archive",
              "type": "bool"
            },
            {
              "internalType": "bool",
              "name": "_sent",
              "type": "bool"
            },
            {
              "internalType": "bool",
              "name": "_read",
              "type": "bool"
            },
            {
              "internalType": "bool",
              "name": "_spam",
              "type": "bool"
            },
            {
              "internalType": "bool",
              "name": "_trash",
              "type": "bool"
            },
            {
              "internalType": "bool",
              "name": "_unTracked",
              "type": "bool"
            },
            {
              "internalType": "bool",
              "name": "_isTop",
              "type": "bool"
            },
            {
              "internalType": "address",
              "name": "_sender",
              "type": "address"
            }
          ],
          "internalType": "struct AVAXGods.Mail[]",
          "name": "",
          "type": "tuple[]"
        }
      ],
      "stateMutability": "nonpayable",
      "type": "function"
    },
    {
      "inputs": [
        {
          "internalType": "address",
          "name": "_address",
          "type": "address"
        },
        {
          "internalType": "uint256",
          "name": "index",
          "type": "uint256"
        }
      ],
      "name": "getReply",
      "outputs": [
        {
          "components": [
            {
              "internalType": "address",
              "name": "_from",
              "type": "address"
            },
            {
              "internalType": "address",
              "name": "_to",
              "type": "address"
            },
            {
              "internalType": "string",
              "name": "_subject",
              "type": "string"
            },
            {
              "internalType": "string",
              "name": "_markdown",
              "type": "string"
            },
            {
              "internalType": "uint256",
              "name": "_timeStamp",
              "type": "uint256"
            },
            {
              "internalType": "uint256",
              "name": "_index",
              "type": "uint256"
            },
            {
              "internalType": "uint256",
              "name": "_idx",
              "type": "uint256"
            },
            {
              "internalType": "bool",
              "name": "_inbox",
              "type": "bool"
            },
            {
              "internalType": "bool",
              "name": "_starred",
              "type": "bool"
            },
            {
              "internalType": "bool",
              "name": "_archive",
              "type": "bool"
            },
            {
              "internalType": "bool",
              "name": "_sent",
              "type": "bool"
            },
            {
              "internalType": "bool",
              "name": "_read",
              "type": "bool"
            },
            {
              "internalType": "bool",
              "name": "_spam",
              "type": "bool"
            },
            {
              "internalType": "bool",
              "name": "_trash",
              "type": "bool"
            },
            {
              "internalType": "bool",
              "name": "_unTracked",
              "type": "bool"
            },
            {
              "internalType": "bool",
              "name": "_isTop",
              "type": "bool"
            },
            {
              "internalType": "address",
              "name": "_sender",
              "type": "address"
            }
          ],
          "internalType": "struct AVAXGods.Mail[]",
          "name": "",
          "type": "tuple[]"
        }
      ],
      "stateMutability": "view",
      "type": "function"
    },
    {
      "inputs": [],
      "name": "inbox",
      "outputs": [
        {
          "components": [
            {
              "internalType": "address",
              "name": "_from",
              "type": "address"
            },
            {
              "internalType": "address",
              "name": "_to",
              "type": "address"
            },
            {
              "internalType": "string",
              "name": "_subject",
              "type": "string"
            },
            {
              "internalType": "string",
              "name": "_markdown",
              "type": "string"
            },
            {
              "internalType": "uint256",
              "name": "_timeStamp",
              "type": "uint256"
            },
            {
              "internalType": "uint256",
              "name": "_index",
              "type": "uint256"
            },
            {
              "internalType": "uint256",
              "name": "_idx",
              "type": "uint256"
            },
            {
              "internalType": "bool",
              "name": "_inbox",
              "type": "bool"
            },
            {
              "internalType": "bool",
              "name": "_starred",
              "type": "bool"
            },
            {
              "internalType": "bool",
              "name": "_archive",
              "type": "bool"
            },
            {
              "internalType": "bool",
              "name": "_sent",
              "type": "bool"
            },
            {
              "internalType": "bool",
              "name": "_read",
              "type": "bool"
            },
            {
              "internalType": "bool",
              "name": "_spam",
              "type": "bool"
            },
            {
              "internalType": "bool",
              "name": "_trash",
              "type": "bool"
            },
            {
              "internalType": "bool",
              "name": "_unTracked",
              "type": "bool"
            },
            {
              "internalType": "bool",
              "name": "_isTop",
              "type": "bool"
            },
            {
              "internalType": "address",
              "name": "_sender",
              "type": "address"
            }
          ],
          "internalType": "struct AVAXGods.Mail[]",
          "name": "",
          "type": "tuple[]"
        }
      ],
      "stateMutability": "view",
      "type": "function"
    },
    {
      "inputs": [
        {
          "internalType": "address",
          "name": "",
          "type": "address"
        },
        {
          "internalType": "uint256",
          "name": "",
          "type": "uint256"
        }
      ],
      "name": "mails",
      "outputs": [
        {
          "internalType": "address",
          "name": "_from",
          "type": "address"
        },
        {
          "internalType": "address",
          "name": "_to",
          "type": "address"
        },
        {
          "internalType": "string",
          "name": "_subject",
          "type": "string"
        },
        {
          "internalType": "string",
          "name": "_markdown",
          "type": "string"
        },
        {
          "internalType": "uint256",
          "name": "_timeStamp",
          "type": "uint256"
        },
        {
          "internalType": "uint256",
          "name": "_index",
          "type": "uint256"
        },
        {
          "internalType": "uint256",
          "name": "_idx",
          "type": "uint256"
        },
        {
          "internalType": "bool",
          "name": "_inbox",
          "type": "bool"
        },
        {
          "internalType": "bool",
          "name": "_starred",
          "type": "bool"
        },
        {
          "internalType": "bool",
          "name": "_archive",
          "type": "bool"
        },
        {
          "internalType": "bool",
          "name": "_sent",
          "type": "bool"
        },
        {
          "internalType": "bool",
          "name": "_read",
          "type": "bool"
        },
        {
          "internalType": "bool",
          "name": "_spam",
          "type": "bool"
        },
        {
          "internalType": "bool",
          "name": "_trash",
          "type": "bool"
        },
        {
          "internalType": "bool",
          "name": "_unTracked",
          "type": "bool"
        },
        {
          "internalType": "bool",
          "name": "_isTop",
          "type": "bool"
        },
        {
          "internalType": "address",
          "name": "_sender",
          "type": "address"
        }
      ],
      "stateMutability": "view",
      "type": "function"
    },
    {
      "inputs": [
        {
          "internalType": "string",
          "name": "_to",
          "type": "string"
        },
        {
          "internalType": "uint256[]",
          "name": "_indexes",
          "type": "uint256[]"
        }
      ],
      "name": "move",
      "outputs": [],
      "stateMutability": "nonpayable",
      "type": "function"
    },
    {
      "inputs": [
        {
          "internalType": "uint256",
          "name": "_index",
          "type": "uint256"
        },
        {
          "internalType": "address",
          "name": "_to",
          "type": "address"
        },
        {
          "internalType": "string",
          "name": "_subject",
          "type": "string"
        },
        {
          "internalType": "string",
          "name": "_markdown",
          "type": "string"
        },
        {
          "internalType": "address",
          "name": "_from",
          "type": "address"
        },
        {
          "internalType": "uint256",
          "name": "time",
          "type": "uint256"
        },
        {
          "internalType": "uint256",
          "name": "idx",
          "type": "uint256"
        }
      ],
      "name": "reply",
      "outputs": [],
      "stateMutability": "nonpayable",
      "type": "function"
    },
    {
      "inputs": [],
      "name": "sent",
      "outputs": [
        {
          "components": [
            {
              "internalType": "address",
              "name": "_from",
              "type": "address"
            },
            {
              "internalType": "address",
              "name": "_to",
              "type": "address"
            },
            {
              "internalType": "string",
              "name": "_subject",
              "type": "string"
            },
            {
              "internalType": "string",
              "name": "_markdown",
              "type": "string"
            },
            {
              "internalType": "uint256",
              "name": "_timeStamp",
              "type": "uint256"
            },
            {
              "internalType": "uint256",
              "name": "_index",
              "type": "uint256"
            },
            {
              "internalType": "uint256",
              "name": "_idx",
              "type": "uint256"
            },
            {
              "internalType": "bool",
              "name": "_inbox",
              "type": "bool"
            },
            {
              "internalType": "bool",
              "name": "_starred",
              "type": "bool"
            },
            {
              "internalType": "bool",
              "name": "_archive",
              "type": "bool"
            },
            {
              "internalType": "bool",
              "name": "_sent",
              "type": "bool"
            },
            {
              "internalType": "bool",
              "name": "_read",
              "type": "bool"
            },
            {
              "internalType": "bool",
              "name": "_spam",
              "type": "bool"
            },
            {
              "internalType": "bool",
              "name": "_trash",
              "type": "bool"
            },
            {
              "internalType": "bool",
              "name": "_unTracked",
              "type": "bool"
            },
            {
              "internalType": "bool",
              "name": "_isTop",
              "type": "bool"
            },
            {
              "internalType": "address",
              "name": "_sender",
              "type": "address"
            }
          ],
          "internalType": "struct AVAXGods.Mail[]",
          "name": "",
          "type": "tuple[]"
        }
      ],
      "stateMutability": "view",
      "type": "function"
    },
    {
      "inputs": [],
      "name": "spam",
      "outputs": [
        {
          "components": [
            {
              "internalType": "address",
              "name": "_from",
              "type": "address"
            },
            {
              "internalType": "address",
              "name": "_to",
              "type": "address"
            },
            {
              "internalType": "string",
              "name": "_subject",
              "type": "string"
            },
            {
              "internalType": "string",
              "name": "_markdown",
              "type": "string"
            },
            {
              "internalType": "uint256",
              "name": "_timeStamp",
              "type": "uint256"
            },
            {
              "internalType": "uint256",
              "name": "_index",
              "type": "uint256"
            },
            {
              "internalType": "uint256",
              "name": "_idx",
              "type": "uint256"
            },
            {
              "internalType": "bool",
              "name": "_inbox",
              "type": "bool"
            },
            {
              "internalType": "bool",
              "name": "_starred",
              "type": "bool"
            },
            {
              "internalType": "bool",
              "name": "_archive",
              "type": "bool"
            },
            {
              "internalType": "bool",
              "name": "_sent",
              "type": "bool"
            },
            {
              "internalType": "bool",
              "name": "_read",
              "type": "bool"
            },
            {
              "internalType": "bool",
              "name": "_spam",
              "type": "bool"
            },
            {
              "internalType": "bool",
              "name": "_trash",
              "type": "bool"
            },
            {
              "internalType": "bool",
              "name": "_unTracked",
              "type": "bool"
            },
            {
              "internalType": "bool",
              "name": "_isTop",
              "type": "bool"
            },
            {
              "internalType": "address",
              "name": "_sender",
              "type": "address"
            }
          ],
          "internalType": "struct AVAXGods.Mail[]",
          "name": "",
          "type": "tuple[]"
        }
      ],
      "stateMutability": "view",
      "type": "function"
    },
    {
      "inputs": [],
      "name": "star",
      "outputs": [
        {
          "components": [
            {
              "internalType": "address",
              "name": "_from",
              "type": "address"
            },
            {
              "internalType": "address",
              "name": "_to",
              "type": "address"
            },
            {
              "internalType": "string",
              "name": "_subject",
              "type": "string"
            },
            {
              "internalType": "string",
              "name": "_markdown",
              "type": "string"
            },
            {
              "internalType": "uint256",
              "name": "_timeStamp",
              "type": "uint256"
            },
            {
              "internalType": "uint256",
              "name": "_index",
              "type": "uint256"
            },
            {
              "internalType": "uint256",
              "name": "_idx",
              "type": "uint256"
            },
            {
              "internalType": "bool",
              "name": "_inbox",
              "type": "bool"
            },
            {
              "internalType": "bool",
              "name": "_starred",
              "type": "bool"
            },
            {
              "internalType": "bool",
              "name": "_archive",
              "type": "bool"
            },
            {
              "internalType": "bool",
              "name": "_sent",
              "type": "bool"
            },
            {
              "internalType": "bool",
              "name": "_read",
              "type": "bool"
            },
            {
              "internalType": "bool",
              "name": "_spam",
              "type": "bool"
            },
            {
              "internalType": "bool",
              "name": "_trash",
              "type": "bool"
            },
            {
              "internalType": "bool",
              "name": "_unTracked",
              "type": "bool"
            },
            {
              "internalType": "bool",
              "name": "_isTop",
              "type": "bool"
            },
            {
              "internalType": "address",
              "name": "_sender",
              "type": "address"
            }
          ],
          "internalType": "struct AVAXGods.Mail[]",
          "name": "",
          "type": "tuple[]"
        }
      ],
      "stateMutability": "view",
      "type": "function"
    },
    {
      "inputs": [],
      "name": "trash",
      "outputs": [
        {
          "components": [
            {
              "internalType": "address",
              "name": "_from",
              "type": "address"
            },
            {
              "internalType": "address",
              "name": "_to",
              "type": "address"
            },
            {
              "internalType": "string",
              "name": "_subject",
              "type": "string"
            },
            {
              "internalType": "string",
              "name": "_markdown",
              "type": "string"
            },
            {
              "internalType": "uint256",
              "name": "_timeStamp",
              "type": "uint256"
            },
            {
              "internalType": "uint256",
              "name": "_index",
              "type": "uint256"
            },
            {
              "internalType": "uint256",
              "name": "_idx",
              "type": "uint256"
            },
            {
              "internalType": "bool",
              "name": "_inbox",
              "type": "bool"
            },
            {
              "internalType": "bool",
              "name": "_starred",
              "type": "bool"
            },
            {
              "internalType": "bool",
              "name": "_archive",
              "type": "bool"
            },
            {
              "internalType": "bool",
              "name": "_sent",
              "type": "bool"
            },
            {
              "internalType": "bool",
              "name": "_read",
              "type": "bool"
            },
            {
              "internalType": "bool",
              "name": "_spam",
              "type": "bool"
            },
            {
              "internalType": "bool",
              "name": "_trash",
              "type": "bool"
            },
            {
              "internalType": "bool",
              "name": "_unTracked",
              "type": "bool"
            },
            {
              "internalType": "bool",
              "name": "_isTop",
              "type": "bool"
            },
            {
              "internalType": "address",
              "name": "_sender",
              "type": "address"
            }
          ],
          "internalType": "struct AVAXGods.Mail[]",
          "name": "",
          "type": "tuple[]"
        }
      ],
      "stateMutability": "view",
      "type": "function"
    }
  ],
  "bytecode": "0x6080806040523461001657612dcb908161001c8239f35b600080fdfe6080604052600436101561001257600080fd5b60003560e01c806302a2146014611f3a5780632c6dbb1c14611dd857806347966bc214611bb05780638a6bbab4146115a2578063917bb5d01461100c578063c2bfccc014610da0578063c3e7005514610b78578063c763e5a114610afd578063cc90dd5e1461075d578063dae0dc971461060c578063dfcfa9c5146103d9578063f459e1a7146103415763fb0e722b146100ab57600080fd5b3461033c57600036600319011261033c57336000526001602052604060002080546000805b82811061023357506100e1906128a2565b9160009060005b83811061010157604051806100fd87826121a2565b0390f35b61010b8183612394565b5060ff8060078093015416918261021a575b826101fe575b826101e2575b826101c6575b826101aa575b8261018e575b5050610150575b61014b90612869565b6100e8565b9161018661014b9161016b6101658686612394565b506129d4565b610175828961288e565b52610180818861288e565b50612869565b929050610142565b90915061019b8385612394565b50015460181c1615388061013b565b915080826101b88587612394565b50015460301c161591610135565b915080826101d48587612394565b50015460281c16159161012f565b915080826101f08587612394565b50015460101c161591610129565b9150808261020c8587612394565b50015460381c161591610123565b915060046102288486612394565b50015415159161011d565b61023d8185612394565b5060ff80600780930154169182610323575b82610307575b826102eb575b826102cf575b826102b3575b82610297575b5050610282575b61027d90612869565b6100d0565b9061028f61027d91612869565b919050610274565b9091506102a48387612394565b50015460181c1615388061026d565b915080826102c18589612394565b50015460301c161591610267565b915080826102dd8589612394565b50015460281c161591610261565b915080826102f98589612394565b50015460101c16159161025b565b915080826103158589612394565b50015460381c161591610255565b915060046103318488612394565b50015415159161024f565b600080fd5b3461033c57604036600319011261033c576001600160a01b036103626122e2565b1660005260206000815260406000206024356000528152604060002080546103898161237d565b91610397604051938461235c565b8183526000908152838120938084015b8383106103bc57604051806100fd87826121a2565b6008826001926103cb896129d4565b8152019601920191946103a7565b3461033c57608036600319011261033c576103f26122e2565b6001600160401b0360243581811161033c576104129036906004016122f8565b909160443590811161033c576105cc926104336105af9236906004016122f8565b33600052600460205261052f6040600020549260018060a01b038916600052604060002054926105236040519661046988612325565b3388526001600160a01b038c166020890152610486368b836124a6565b60408901526104963684866124a6565b606089015260643560808901528660a08901528560c0890152600060e08901526000610100890152600061012089015260006101408901526000610160890152600061018089015260006101a089015260006101c089015260006101e0890152336102008901526040519961050a8b612325565b6001600160a01b038d168b523360208c015236916124a6565b604089015236916124a6565b6060860152606435608086015260a085015260c08401526000610100840152600061012084015260006101408401526000610160840152600061018084015260006101a084015260006101c084015260006101e0840152336102008401526001610140820152600160e08401523360005260016020526040600020612846565b6001600160a01b0383166000908152600160205260409020612846565b33600052600460205260406000206105e48154612869565b90556001600160a01b03166000908152600460205260409020805461060890612869565b9055005b3461033c57604036600319011261033c576106256122e2565b6001600160a01b03908116600090815260016020526040902080546024359081101561033c5761065491612394565b508181541690826001820154169261066e60028301612400565b61067a60038401612400565b926004810154936106c46005830154916106b660076006860154950154956040519a8b9a8b5260208b01526102208060408c01528a0190612162565b9088820360608a0152612162565b94608087015260a086015260c085015260ff808216151560e0860152808260081c161515610100860152808260101c161515610120860152808260181c161515610140860152808260201c161515610160860152808260281c161515610180860152808260301c1615156101a0860152808260381c1615156101c08601528160401c1615156101e085015260481c166102008301520390f35b3461033c5760c036600319011261033c576107766122e2565b6001600160401b0360243581811161033c576107969036906004016122f8565b60449391933592831161033c576107b46109559336906004016122f8565b9390913360005260046020526108b36040600020549360018060a01b038616600052604060002054966108a7604051996107ed8b612325565b338b526001600160a01b03891660208c015261080a3687836124a6565b60408c015261081a3684866124a6565b60608c015260843560808c01528760a08c01528960c08c0152600060e08c015260006101008c015260006101208c015260006101408c015260006101608c015260006101808c015260006101a08c015260006101c08c015260006101e08c0152336102008c01526040519561088e87612325565b6001600160a01b038a16875233602088015236916124a6565b604085015236916124a6565b606082015260843560808201528460a08201528260c08201526000610100820152600061012082015260006101408201526000610160820152600061018082015260006101a082015260006101c082015260006101e082015233610200820152610938600196876101408201528760e084015233600052876020526040600020612846565b6001600160a01b0384166000908152602087905260409020612846565b3360005260006020526040600020926064359384600052602052604060002054610a33575b505033600052600460205260406000206109948154612869565b90556001600160a01b0316600090815260046020526040902080546109b890612869565b9055336000526000602052604060002090600052602052604060002080546109df8161237d565b916109ed604051938461235c565b818352602083019060005260206000206000915b838310610a1657604051806100fd87826121a2565b600860208792610a25856129d4565b815201920192019190610a01565b3360005260006020526040600020846000526020526040600020549160005b838110610a6057505061097a565b610af890336000526000602052604060002083600052602052610aab6040600020336000526000602052604060002089600052602052610aa4836040600020612394565b5090612ba0565b60018060a01b0386166000526000602052604060002084600052602052610af36040600020336000526000602052604060002089600052602052610aa4836040600020612394565b612869565b610a52565b3461033c57600036600319011261033c5733600052600160208181526040600020805490610b2a8261237d565b92610b38604051948561235c565b82845260009182528082208185015b848410610b5c57604051806100fd88826121a2565b6008838892610b6a856129d4565b815201920193019290610b47565b3461033c57600036600319011261033c57336000526001602052604060002080546000805b828110610cb95750610bae906128a2565b9160009060005b838110610bca57604051806100fd87826121a2565b610bd48183612394565b5060ff8060078093015460301c169182610ca0575b82610c84575b82610c6b575b82610c4f575b82610c33575b5050610c16575b610c1190612869565b610bb5565b91610c2b610c119161016b6101658686612394565b929050610c08565b909150610c408385612394565b50015460281c16158680610c01565b91508082610c5d8587612394565b50015460101c161591610bfb565b91508082610c798587612394565b500154161591610bf5565b91508082610c928587612394565b50015460381c161591610bef565b91506004610cae8486612394565b500154151591610be9565b610cc38185612394565b5060ff8060078093015460301c169182610d87575b82610d6b575b82610d52575b82610d36575b82610d1a575b5050610d05575b610d0090612869565b610b9d565b90610d12610d0091612869565b919050610cf7565b909150610d278387612394565b50015460281c16158580610cf0565b91508082610d448589612394565b50015460101c161591610cea565b91508082610d608589612394565b500154161591610ce4565b91508082610d798589612394565b50015460381c161591610cde565b91506004610d958488612394565b500154151591610cd8565b3461033c57600036600319011261033c57336000526001602052604060002080546000805b828110610f035750610dd6906128a2565b9160009060005b838110610df257604051806100fd87826121a2565b610dfc8183612394565b5060ff8060078093015460181c169182610eea575b82610ece575b82610eb2575b82610e96575b82610e7a575b82610e61575b5050610e44575b610e3f90612869565b610ddd565b91610e59610e3f9161016b6101658686612394565b929050610e36565b909150610e6e8385612394565b50015416158680610e2f565b91508082610e888587612394565b50015460301c161591610e29565b91508082610ea48587612394565b50015460281c161591610e23565b91508082610ec08587612394565b50015460101c161591610e1d565b91508082610edc8587612394565b50015460381c161591610e17565b91506004610ef88486612394565b500154151591610e11565b610f0d8185612394565b5060ff8060078093015460181c169182610ff3575b82610fd7575b82610fbb575b82610f9f575b82610f83575b82610f6a575b5050610f55575b610f5090612869565b610dc5565b90610f62610f5091612869565b919050610f47565b909150610f778387612394565b50015416158580610f40565b91508082610f918589612394565b50015460301c161591610f3a565b91508082610fad8589612394565b50015460281c161591610f34565b91508082610fc98589612394565b50015460101c161591610f2e565b91508082610fe58589612394565b50015460381c161591610f28565b915060046110018488612394565b500154151591610f22565b3461033c57604036600319011261033c576001600160401b0360043581811161033c5761103d9036906004016122f8565b9160243590811161033c573660238201121561033c578060040135916110628361237d565b91611070604051938461235c565b83835260209360248585019160051b8301019136831161033c576024869101915b838310611592575050505060405183810190858383376110c0858288810160008382015203808452018261235c565b519020604051848101906329aa20a960e11b8252600481526110e181612341565b5190200361116c5750805191925060005b82811061110057505050505b005b80610af3611111611167938561288e565b513360005260019081885261114d61112d826040600020612394565b509160ff60078094015460081c161593336000528a526040600020612394565b50019061ff00825491151560081b169061ff001916179055565b6110f2565b6040518381019085838337611190858288810160008382015203808452018261235c565b5190209360405194848601664152434849564560c81b81526007968781526111b781612341565b5190200361127e57505080519160005b8381106111d057005b80610af36111e1611279938661288e565b51336000528761125d600192838852826111ff826040600020612394565b500160ff198154169055336000528388528261121f826040600020612394565b500160ff60281b1981541690553360005283885260ff83611244836040600020612394565b50015460101c1615933360005288526040600020612394565b50019062ff0000825491151560101b169062ff00001916179055565b6111c7565b60405184810190828483376112a2868285810160008382015203808452018261235c565b51902060405185810190635350414d60e01b8252600481526112c381612341565b5190200361138b57505080519160005b8381106112dc57005b80610af36112ed611386938661288e565b5133600052876113686001928388528261130b826040600020612394565b500160ff198154169055336000528388528261132b826040600020612394565b500162ff00001981541690553360005283885260ff8361134f836040600020612394565b50015460281c1615933360005288526040600020612394565b50019060ff60281b825491151560281b169060ff60281b1916179055565b6112d3565b60405184810190828483376113af868285810160008382015203808452018261235c565b51902060405185810190631491505160e21b8252600481526113d081612341565b5190200361145557505080519160005b8381106113e957005b80610af36113fa611450938661288e565b51336000528761143260019283885260ff8361141a836040600020612394565b500154891c1615933360005288526040600020612394565b50019060ff60201b825491151560201b169060ff60201b1916179055565b6113e0565b61147b84604096949651838194838301968737810160008382015203808452018261235c565b51902060405183810190640a8a482a6960db1b82526005815261149d81612341565b519020146114a757005b82519160005b8381106114b657005b80836114c5611538938861288e565b5133600052600190818652826114df826040600020612394565b500160ff1981541690553360005281865260ff83611501836040600020612394565b50015460301c1661153d57611520913360005286526040600020612394565b5001805460ff60301b1916600160301b179055612869565b6114ad565b61157a913360005280875283611557836040600020612394565b5001600160301b60ff60301b198254161790553360005286526040600020612394565b5001805460ff60381b1916600160381b179055612869565b8235815291810191869101611091565b3461033c5760e036600319011261033c576024356001600160a01b03808216820361033c576044356001600160401b03811161033c576115e69036906004016122f8565b6064929192356001600160401b03811161033c576116089036906004016122f8565b6084359291848416840361033c576116da916108a76040519761162a89612325565b338952878a1660208a01526116403687836124a6565b60408a01526116503684866124a6565b60608a015260a43560808a015260043560a08a015260c43560c08a0152600060e08a015260006101008a015260006101208a015260006101408a015260006101608a015260006101808a015260006101a08a015260006101c08a015260006101e08a0152336102008a0152604051956116c887612325565b888b16875233602088015236916124a6565b606082015260a435608082015260c43560a082015260043560c0820152600060e08201526000610100820152600061012082015260006101408201526000610160820152600061018082015260006101a082015260006101c082015260006101e0820152336102008201528285166000526001602052600160ff600761176660c4356040600020612394565b50015460301c161515036118e55780600160e06117a0930152838616600052600160205261179a60c4356040600020612394565b90612821565b6040519360208501908582106001600160401b038311176118cf5783908260405260008752166000526000602052604060002060c4356000526020526040600020945190600160401b82116118cf578554828755808310611859575b50946000526020600020946000905b82821061183b575050506110fe935016600052600060205260406000206004356000526020526040600020612846565b600860208261184d600194518b612548565b0197019101909561180b565b61186290612971565b61186b83612971565b87600052602060002091820191015b81811061188757506117fc565b80600060089255600060018201556118a160028201612988565b6118ad60038201612988565b600060048201556000600582015560006006820155600060078201550161187a565b634e487b7160e01b600052604160045260246000fd5b828594939516600052600160205284600160ff600761190a60c4356040600020612394565b50015460181c16151503611b315784166000526001602052600761193460c4356040600020612394565b500163ff0000001981541690558484166000526001602052600761195e60c4356040600020612394565b5001600160ff19825416179055604083015192858516600052600160205261198c60c4356040600020612394565b5084516001600160401b0381116118cf5787956119b9826119b060028601546123c6565b60028601612503565b602090601f8311600114611ab55782611a64969593611a419593600293600092611aaa575b50508160011b916000199060031b1c1916179101555b85871660005260016020526007611a1160c4356040600020612394565b500160ff60201b198154169055858516600052600060205260406000206004356000526020526040600020612846565b8385166000526000602052604060002060c4356000526020526040600020612846565b166000526001602052611a7d6004356040600020612394565b50600460a435910155166000526001602052611a9f60c4356040600020612394565b50600460a435910155005b015190508c806119de565b906002840160005260206000209160005b601f1985168110611b16575083611a419593600293600193611a649a9997601f19811610611afd575b505050811b019101556119f4565b015160001960f88460031b161c191690558c8080611aef565b8183015184558b995060019093019260209283019201611ac6565b92908385166000526001602052600160ff6007611b5460c4356040600020612394565b50015460201c16151503611b8657611a41611a649285871660005260016020526007611a1160c4356040600020612394565b611a41611a6492858516600052600060205260406000206004356000526020526040600020612846565b3461033c57600036600319011261033c57336000526001602052604060002080546000805b828110611cf15750611be6906128a2565b9160009060005b838110611c0257604051806100fd87826121a2565b611c0c8183612394565b5060ff8060078093015460281c169182611cd8575b82611cbc575b82611ca3575b82611c87575b82611c6b575b5050611c4e575b611c4990612869565b611bed565b91611c63611c499161016b6101658686612394565b929050611c40565b909150611c788385612394565b50015460301c16158680611c39565b91508082611c958587612394565b50015460101c161591611c33565b91508082611cb18587612394565b500154161591611c2d565b91508082611cca8587612394565b50015460381c161591611c27565b91506004611ce68486612394565b500154151591611c21565b611cfb8185612394565b5060ff8060078093015460281c169182611dbf575b82611da3575b82611d8a575b82611d6e575b82611d52575b5050611d3d575b611d3890612869565b611bd5565b90611d4a611d3891612869565b919050611d2f565b909150611d5f8387612394565b50015460301c16158580611d28565b91508082611d7c8589612394565b50015460101c161591611d22565b91508082611d988589612394565b500154161591611d1c565b91508082611db18589612394565b50015460381c161591611d16565b91506004611dcd8488612394565b500154151591611d10565b3461033c57600036600319011261033c57336000526001602052604060002080546000805b828110611eb65750611e0e906128a2565b9160009060005b838110611e2a57604051806100fd87826121a2565b611e348183612394565b5060ff8060078093015460081c169182611e9d575b82611e81575b5050611e64575b611e5f90612869565b611e15565b91611e79611e5f9161016b6101658686612394565b929050611e56565b909150611e8e8385612394565b50015460381c16158680611e4f565b91506004611eab8486612394565b500154151591611e49565b611ec08185612394565b5060ff8060078093015460081c169182611f21575b82611f05575b5050611ef0575b611eeb90612869565b611dfd565b90611efd611eeb91612869565b919050611ee2565b909150611f128387612394565b50015460381c16158580611edb565b91506004611f2f8488612394565b500154151591611ed5565b3461033c57600036600319011261033c57336000526001602052604060002080546000805b82811061207b5750611f70906128a2565b9160009060005b838110611f8c57604051806100fd87826121a2565b611f968183612394565b5060ff8060078093015460101c169182612062575b82612046575b8261202d575b82612011575b82611ff5575b5050611fd8575b611fd390612869565b611f77565b91611fed611fd39161016b6101658686612394565b929050611fca565b9091506120028385612394565b50015460301c16158680611fc3565b9150808261201f8587612394565b50015460281c161591611fbd565b9150808261203b8587612394565b500154161591611fb7565b915080826120548587612394565b50015460381c161591611fb1565b915060046120708486612394565b500154151591611fab565b6120858185612394565b5060ff8060078093015460101c169182612149575b8261212d575b82612114575b826120f8575b826120dc575b50506120c7575b6120c290612869565b611f5f565b906120d46120c291612869565b9190506120b9565b9091506120e98387612394565b50015460301c161585806120b2565b915080826121068589612394565b50015460281c1615916120ac565b915080826121228589612394565b5001541615916120a6565b9150808261213b8589612394565b50015460381c1615916120a0565b915060046121578488612394565b50015415159161209a565b919082519283825260005b84811061218e575050826000602080949584010152601f8019910116010190565b60208183018101518483018201520161216d565b602080820190808352835180925260409283810182858560051b8401019601946000925b8584106121d7575050505050505090565b909192939495968580600192603f198582030187528a5190848060a01b03918281511682528284820151168483015261223361222089830151610220808c870152850190612162565b6060808401519085830390860152612162565b926080808301519084015260a0808301519084015260c0808301519084015260e08083015115159084015261010080830151151590840152610120808301511515908401526101408083015115159084015261016080830151151590840152610180808301511515908401526101a0808301511515908401526101c0808301511515908401526101e08083015115159084015261020080920151169101529901940194019295949391906121c6565b600435906001600160a01b038216820361033c57565b9181601f8401121561033c578235916001600160401b03831161033c576020838186019501011161033c57565b61022081019081106001600160401b038211176118cf57604052565b604081019081106001600160401b038211176118cf57604052565b90601f801991011681019081106001600160401b038211176118cf57604052565b6001600160401b0381116118cf5760051b60200190565b80548210156123b05760005260206000209060031b0190600090565b634e487b7160e01b600052603260045260246000fd5b90600182811c921680156123f6575b60208310146123e057565b634e487b7160e01b600052602260045260246000fd5b91607f16916123d5565b9060405191826000825492612414846123c6565b9081845260019485811690816000146124835750600114612440575b505061243e9250038361235c565b565b9093915060005260209081600020936000915b81831061246b57505061243e93508201013880612430565b85548884018501529485019487945091830191612453565b91505061243e94506020925060ff191682840152151560051b8201013880612430565b9291926001600160401b0382116118cf57604051916124cf601f8201601f19166020018461235c565b82948184528183011161033c578281602093846000960137010152565b8181106124f7575050565b600081556001016124ec565b9190601f811161251257505050565b61243e926000526020600020906020601f840160051c8301931061253e575b601f0160051c01906124ec565b9091508190612531565b919060018060a01b03808251169360018060a01b031994858254161781556001808201602096848887015116908254161790556002820160408501519081516001600160401b03928382116118cf5781906125ad826125a786546123c6565b86612503565b8a90601f83116001146127be576000926127b3575b5050600019600383901b1c191690841b1790555b600383019160608601519788519283116118cf576125f8836125a786546123c6565b80601f841160011461273f575091808060079593610200979561243e9b9c600094612734575b50501b916000199060031b1c19161790555b6080850151600482015560a0850151600582015560c08501516006820155019261266c60e08201511515859060ff801983541691151516179055565b61010081015184546101208301516101408401516101608501516101808601516101a08701516101c08801516101e0890151999098015198151560401b60ff60401b1697151560381b60ff60381b1690151560301b60ff60301b16610100600160e81b031990961696151560081b61ff00169690961793151560101b62ff0000169390931791151560181b63ff000000169190911790151560201b60ff60201b161790151560281b60ff60281b1617171717911660481b600160481b600160e81b0316179055565b01519250388061261e565b91939498601f1984168660005283600020936000905b82821061279c5750509260079592859261243e9b9c96610200999610612783575b505050811b019055612630565b015160001960f88460031b161c19169055388080612776565b808886978294978701518155019601940190612755565b0151905038806125c2565b60008581528c8120889550929190601f198516908e5b82821061280a57505084116127f1575b505050811b0190556125d6565b015160001960f88460031b161c191690553880806127e4565b8385015186558a979095019493840193018e6127d4565b91906128305761243e91612548565b634e487b7160e01b600052600060045260246000fd5b80549190600160401b8310156118cf578261179a91600161243e95018155612394565b60001981146128785760010190565b634e487b7160e01b600052601160045260246000fd5b80518210156123b05760209160051b010190565b906128ac8261237d565b6040906128bb8251918261235c565b83815280936128cc601f199161237d565b019160005b8381106128de5750505050565b60209082516128ec81612325565b6000815282600081830152606080868401528083015260006080830152600060a0830152600060c0830152600060e08301526000610100830152600061012083015260006101408301526000610160830152600061018083015260006101a083015260006101c083015260006101e083015260006102008301528286010152016128d1565b6001600160fd1b0381116001166128785760031b90565b61299281546123c6565b908161299c575050565b81601f600093116001146129ae575055565b818352602083206129ca91601f0160051c8101906001016124ec565b8160208120915555565b906040516129e181612325565b6102008193600760018060a01b0391828154168552826001820154166020860152612a0e60028201612400565b6040860152612a1f60038201612400565b606086015260048101546080860152600581015460a0860152600681015460c0860152015460ff808216151560e0860152808260081c161515610100860152808260101c161515610120860152808260181c161515610140860152808260201c161515610160860152808260281c161515610180860152808260301c1615156101a0860152808260381c1615156101c08601528160401c1615156101e085015260481c16910152565b90808214612b9c57612ada81546123c6565b906001600160401b0382116118cf578190612af9826125a786546123c6565b600090601f8311600114612b3057600092612b25575b50508160011b916000199060031b1c1916179055565b015490503880612b0f565b81526020808220858352818320935090601f1985169083905b828210612b83575050908460019594939210612b6a575b505050811b019055565b015460001960f88460031b161c19169055388080612b60565b8495819295850154815560018091019601940190612b49565b5050565b8054600160401b8110156118cf57612bbd91600182018155612394565b91909161283057808203612bcf575050565b805482546001600160a01b03199081166001600160a01b03928316178455600183810154908501805490921690831617905561243e926007908190612c1a6002808701908301612ac8565b612c2a6003860160038301612ac8565b600485015460048201556005850154600582015560068501546006820155019201612d6960ff612c6981845416869060ff801983541691151516179055565b8254855461ff001916600891821c8316151590911b61ff00161785558254855462ff00001916601091821c8316151590911b62ff0000161785558254855463ff0000001916601891821c8316151590911b63ff000000161785558254855464ff000000001916602091821c8316151590911b60ff60201b161785558254855465ff00000000001916602891821c8316151590911b60ff60281b161785558254855460ff60301b1916603091821c8316151590911b60ff60301b161785558254855460ff60381b1916603891821c8316151590911b60ff60381b161785558254855460ff60401b1916604091821c929092161515901b60ff60401b16178455565b548254600160481b600160e81b031916604891821c92909216901b600160481b600160e81b031617905556fea2646970667358221220225a37a7838d387319d65fa4d630bebab62378780f923f59f30eec2962a578b064736f6c63430008100033",
  "linkReferences": {},
  "deployedLinkReferences": {}
}